:1000000009C019C018C017C016C015C014C013C04D
:1000100012C011C011241FBECFE9CDBF10E0A0E671
:10002000B0E0E4EFF0E002C005900D92AE38B10709
:10003000D9F721D05DC0E4CFCF93DF93DC019C9151
:100040009923B1F011968FB7F894C39ABB9AC398CD
:1000500008B2E3E0C2E1DC2FDA95F1F790FB03F898
:10006000E695979508BAB9F78FBF9D919111EBCF9F
:10007000DF91CF910895CF93DF93CDB7DD27C051A6
:10008000CDBF80E690E0D8DF80E790E0D5DF8E013D
:100090000F5E1F4F0F2EFBE6FF2EF02DFE01319657
:1000A00005C080833296DF011197FC929FB7F894C8
:1000B000C498BC982AE180E8B499FECF2150F1F7AA
:1000C00023E1B49908948795C8F72A95F1F79FBF63
:1000D0008A3019F0E017F10721F7108283EC99E0DC
:1000E0000197F1F700C00000CE010196A5DFD6CF41
:0400F000F894FFCFB2
:1000F40048656C6C6F20576F726C6421200D0A0088
:1001040053656E6420746F2041726475696E6F204C
:0E01140053657269616C2E2E2E200D0A0000BC
:00000001FF
