:1000000009C016C015C014C013C012C011C010C062
:1000100010C00EC011241FBECFE9CDBF20E0A0E666
:10002000B0E001C01D92A236B207E1F730D053C054
:10003000E7CF1F920F920FB60F9211248F938091EA
:1000400060008F5F80936000813E48F08091610086
:10005000843048F4109260008F5F8093610080913B
:100060006100843070F080916000811102C018BA84
:1000700008C0813031F482E088BB10926000109299
:1000800061008F910F900FBE0F901F9018951092E6
:1000900060001092610082E087BB18BA2FE734E855
:1000A0009EE1215030409040E1F700C0000088BB45
:1000B00081B5816281BD81B5806481BD789485B749
:1000C000877E806185BF85B7806285BF889585B74B
:0A00D0008F7D85BFF8CFF894FFCFB5
:00000001FF
