:100000000C944E000C9468030C946B000C946B00E1
:100010000C946B000C949E030C948F040C946B0056
:100020000C946B000C946B000C946B000C946B00A4
:100030000C946B000C946B000C946B000C946B0094
:100040000C946B000C946B000C946B000C946B0084
:100050000C946B000C946B000C946B000C946B0074
:100060000C946B000C946B003E0247025002590244
:1000700062026B02740267046B0467047304670412
:1000800073046704670473046704730467042A062F
:1000900033063C0645064E065706600611241FBE71
:1000A000CFEFD8E0DEBFCDBF14E0A0E0B1E0ECEED2
:1000B000F2E102C005900D92A431B107D9F724E016
:1000C000A4E1B4E001C01D92AE32B207E1F70E9494
:1000D0007C070C9474090C940000229A239A249AA9
:1000E000259A549A5C98539A5B98219A299A519A26
:1000F0000895569857980895209A289A52980895E6
:10010000559A5D980895509A58980895269A2E9871
:1001100008950E946D000E9479000E947C000E9458
:1001200080000E9483000E9486000895CF93DF9391
:1001300000D000D0CDB7DEB7559A5D9A2FE986E89A
:1001400091E0215080409040E1F700C0000067E05E
:10015000CE0101960E94E7072FE986E891E0215041
:1001600080409040E1F700C0000067E0CE010196BA
:100170000E94E7078B81809325049981909329043D
:100180004AE066E274E090E00E943F098091290411
:100190004AE062E274E090E00E943F090F900F9005
:1001A0000F900F90DF91CF910895EF92FF920F93F0
:1001B0001F93CF93DF93EC017B018A0162E080ED16
:1001C0000E945303888361E080ED0E945303F7018E
:1001D000808360E080ED0E945303F8018083888172
:1001E00086FF03C08F71888302C08F738883DF917D
:1001F000CF911F910F91FF90EF900895EF92FF9292
:100200000F931F93CF93DF937C018B01EA0165E08D
:1002100080ED0E945303F701808364E080ED0E942B
:100220005303F801808366E080ED0E9453038883C6
:10023000DF91CF911F910F91FF90EF900895CF9391
:10024000DF93EC0163E080ED0E9453038883DF912C
:10025000CF9108950F931F93CF93DF9300D01F92F8
:10026000CDB7DEB700E010E080E80E94160584E11B
:100270008A95F1F781EB93E00E94E80480911E04D7
:100280004AE0BE016F5F7F4F082E000C990B0E9461
:100290003F09CE0101960E94E80483EE93E00E949C
:1002A000E80489B1E7EAF1E63197F1F700C0000010
:1002B00086FD0CC080911E048F5F883124F48093EA
:1002C0001E04012F03C010921E04012F1F5F812FF7
:1002D000801B893038F481E19AE70197F1F700C07B
:1002E0000000C2CFE1E1FAE73197F1F700C000006A
:1002F0000F900F900F90DF91CF911F910F91089564
:100300000F931F93CF93DF9300D01F92CDB7DEB72B
:1003100000E010E080E80E94160584E18A95F1F77C
:1003200088EB93E00E94E80480911D044AE0BE013E
:100330006F5F7F4F082E000C990B0E943F09CE0182
:1003400001960E94E80483EE93E00E94E80489B1DC
:10035000E7EAF1E63197F1F700C0000086FD0CC036
:1003600080911D048F5F8C3324F480931D04012F32
:1003700003C010921D04012F1F5F812F801B893045
:1003800038F481E19AE70197F1F700C00000C2CF8D
:10039000E1E1FAE73197F1F700C000000F900F900C
:1003A0000F90DF91CF911F910F9108950F931F939D
:1003B000CF93DF9300D01F92CDB7DEB700E010E0FF
:1003C00080E80E94160584E18A95F1F78EEB93E0B0
:1003D0000E94E80480911C044AE0BE016F5F7F4FD9
:1003E000082E000C990B0E943F09CE0101960E9435
:1003F000E80483EE93E00E94E80489B1E7EAF1E6BD
:100400003197F1F700C0000086FD0CC080911C04FC
:100410008F5F8C3324F480931C04012F03C010924F
:100420001C04012F1F5F812F801B893038F481E16C
:100430009AE70197F1F700C00000C2CFE1E1FAE7C7
:100440003197F1F700C000000F900F900F90DF91EF
:10045000CF911F910F910895CF93DF9300D000D0DB
:100460001F92CDB7DEB790E0FC013197E730F10580
:1004700008F043C0EC5CFF4F0C942D098DE49FE61F
:100480009A8389838EE690E09C838B833EC084E5CB
:1004900095E79A83898385E690E09C838B8335C0BA
:1004A00087E595E69A83898384E690E09C838B8335
:1004B0002CC084E598E69A83898385E790E09C8345
:1004C0008B8323C086E492E79A83898389E690E050
:1004D0009C838B831AC083E591E69A83898384E7A2
:1004E00090E09C838B8311C083E595E79A83898391
:1004F0008EE690E09C838B8308C08FE39FE39A8312
:1005000089838FE390E09C838B83CE0101960E94C8
:10051000E8040F900F900F900F900F90DF91CF9104
:100520000895CF93DF9300D000D0CDB7DEB7AE01F2
:100530004D5F5F4FBE016E5F7F4FCE0101960E94FF
:10054000FE0089810E946E058FE20E94DB048A8191
:100550000E946E058FE20E94DB048B810E946E0573
:1005600080E20E94DB04CE0104960E941F018C8170
:100570000E942C020F900F900F900F90DF91CF915F
:100580000895CF93DF9300D01F92CDB7DEB7AE01B1
:100590004D5F5F4FBE016E5F7F4FCE0101960E949F
:1005A000D50089810E946E058AE30E94DB048A815E
:1005B0000E946E058AE30E94DB048B810E946E0517
:1005C0000F900F900F90DF91CF91089580E80E94D7
:1005D00016050E94C10288E00E94800580EC0E94FE
:1005E000160588E00E94800508950E94960080E824
:1005F0000E9416050E94C10285E00E94800586E2E5
:1006000094E00E94E80483E40E94DB0480EC0E94F2
:1006100016050E94910281E00E94800582E294E02A
:100620000E94E80485E20E94DB0408951092B9005C
:100630008DEF8093B800089594EA9093BC00ECEBA2
:10064000F0E090819923ECF78093BB0084E88093DD
:10065000BC00ECEBF0E080818823ECF79091B900CE
:10066000987F81E0983109F080E008958093BB0085
:1006700084E88093BC00ECEBF0E080818823ECF709
:100680009091B900987F81E0983209F480E0089554
:1006900084E88093BC00ECEBF0E080818823ECF7E9
:1006A0008091BB000895CF93DF93C82FD62F0E946F
:1006B0001C038D2F0E94360381E08C0F0E941C03C7
:1006C0000E94480394E99093BC00DF91CF91089574
:1006D0001F920F920FB60F9211242F933F934F93B7
:1006E0005F936F937F938F939F93AF93BF93EF939A
:1006F000FF9380912B0490912C04019690932C04ED
:1007000080932B04039749F481E0809314040E94A2
:10071000E20710922C0410922B04FF91EF91BF91ED
:10072000AF919F918F917F916F915F914F913F9189
:100730002F910F900FBE0F901F9018951F920F9240
:100740000FB60F9211242F933F934F935F936F93A4
:100750007F938F939F93AF93BF93EF93FF9380917A
:10076000200491E0980F9093200480FD1AC080919E
:10077000210481110DC00E9496070E94230583EC7D
:1007800099E00197F1F700C0000081E08093210417
:100790004E990E9485088FE493EC0197F1F700C011
:1007A0000000FF91EF91BF91AF919F918F917F9149
:1007B0006F915F914F913F912F910F900FBE0F90CE
:1007C0001F901895F894E8E6F0E0808184608083BB
:1007D000EDE6F0E0808180648083789408958091D4
:1007E0001C04885F80931C0420911504285F2093CB
:1007F00015048C335CF090911D049F5F90931D0451
:100800006CE30E941F099E5F90931C042C3364F0DC
:10081000809116048F5F80931604822F6CE30E94F0
:100820001F099E5F9093150480911D048C3354F032
:100830006CE30E941F0990931D0480911E048F5F3A
:1008400080931E04809116048C3361F480911C0403
:10085000845180931C0410921604809117048F5FBA
:100860008093170480911E04883104F110921E04B5
:10087000809119048F5F80931904809118048F5F11
:1008800087301CF48093180411C093E98902912DDC
:100890001124980F9595959587FD9395292F220FF3
:1008A000220F220F291B821B8093180420911A0407
:1008B000822F022E000C990BAA0BBB0BFC01319767
:1008C000EC30F10580F4E55CFF4F0C942D098FE1CD
:1008D00080932A040BC08CE180932A048091190430
:1008E0008D3154F408958EE180932A049091190477
:1008F00080912A04891734F481E0809319042F5FD2
:1009000020931A0480911A048D3044F081E0809382
:100910001A0480911B048F5F80931B0408951F921B
:100920000F920FB60F9211242F933F934F935F9323
:100930006F937F938F939F93AF93BF93EF93FF93A7
:100940000E94EF0380911F049DEC899F912D11243B
:10095000969596959695990F292F220F220F920F13
:10096000891B0E94020780911F048F5F80931F04E0
:10097000FF91EF91BF91AF919F918F917F916F9177
:100980005F914F913F912F910F900FBE0F901F904D
:1009900018952A9888230CF42A9A2B9886FD2B9A6E
:1009A0002C9885FD2C9A2D9884FD2D9A5C9A000038
:1009B0005C9800000895CF93C82F5B9A5C980E94C2
:1009C000C9048C2F8295807F0E94C904CF9108951D
:1009D0000F931F93CF93DF9300D0CDB7DEB78C0179
:1009E0001A821982E981FA81E80FF91F8081882330
:1009F000B1F0E981FA81E00FF11F80810E94DB04F0
:100A000089819A8101969A83898384E18A95F1F795
:100A1000E981FA81E00FF11F80818111EACF0F9007
:100A20000F90DF91CF911F910F910895CF93C82F11
:100A30005B985C980E94C9048C2F8295807F0E94ED
:100A4000C904CF9108958FE097E20197F1F700C0B4
:100A500000005B985C9880E30E94C90481EE94E0FA
:100A60000197F1F700C0000080E30E94C9048FE203
:100A700095E70197F1F700C0000080E30E94C904E8
:100A800083EC99E00197F1F700C0000088E20E9432
:100A9000C90494E19A95F1F788E20E94160584E171
:100AA0008A95F1F788E00E94160594E19A95F1F78E
:100AB00081E00E94160587EE93E00197F1F700C0F0
:100AC000000086E00E94160594E19A95F1F78CE00B
:100AD0000E94160584E18A95F1F70895CF93C82FF7
:100AE00082958F70805D0E94DB048C2F8F70805DFB
:100AF0000E94DB04CF91089529980895299A0895BA
:100B0000CF93DF93882341F0D82FC0E080E20E948A
:100B1000DB04CF5FDC13FACFDF91CF910895CF9341
:100B2000DF93CDB7DEB76C970FB6F894DEBF0FBE7C
:100B3000CDBF80E80E94160584E18A95F1F7809187
:100B40001E044AE0BE01695F7F4F082E000C990B1E
:100B50000E943F0980911D044AE0BE016C5F7F4FF7
:100B6000082E000C990B0E943F0980911C044AE05A
:100B7000BE016F5F7F4F082E000C990B0E943F094A
:100B8000CE0107960E94E8048BEE93E00E94E804F1
:100B9000CE0104960E94E8048BEE93E00E94E804E4
:100BA000CE0101960E94E80489ED93E00E94E804DA
:100BB00084E18A95F1F780EC0E94160584E18A951C
:100BC000F1F780911B044AE0BE01665F7F4F082E5B
:100BD000000C990B0E943F0980911A044AE0BE0163
:100BE000635F7F4F082E000C990B0E943F09809194
:100BF00019044AE0BE01605F7F4F082E000C990B7C
:100C00000E943F09CE010A960E94E80485EE93E017
:100C10000E94E804CE010D960E94E80485EE93E060
:100C20000E94E804CE0140960E94E80483EE93E01F
:100C30000E94E804E09118048E2FEE0F990BAA0B86
:100C4000BB0B8730910508F043C0FC01E95BFF4F07
:100C50000C942D0983E595E79C8B8B8B8EE690E0B9
:100C60009E8B8D8B35C08DE49FE69C8B8B8B8EE6A7
:100C700090E09E8B8D8B2CC084E595E79C8B8B8BB5
:100C800085E690E09E8B8D8B23C087E595E69C8B57
:100C90008B8B84E690E09E8B8D8B1AC084E598E662
:100CA0009C8B8B8B85E790E09E8B8D8B11C086E4AF
:100CB00092E79C8B8B8B89E690E09E8B8D8B08C096
:100CC00083E591E69C8B8B8B84E790E09E8B8D8BEC
:100CD000CE0143960E94E8048FED93E00E94E80461
:100CE00084E18A95F1F76C960FB6F894DEBF0FBEDB
:100CF000CDBFDF91CF910895CF93DF93CDB7DEB70E
:100D000029970FB6F894DEBF0FBECDBF80EC0E94CE
:100D1000160584E18A95F1F7809117044AE0BE0137
:100D2000695F7F4F082E000C990B0E943F0980914C
:100D300016044AE0BE016C5F7F4F082E000C990B31
:100D40000E943F09809115044AE0BE016F5F7F4F0A
:100D5000082E000C990B0E943F09CE0107960E94B5
:100D6000E8048BEE93E00E94E804CE0104960E9412
:100D7000E8048BEE93E00E94E804CE0101960E9405
:100D8000E8048DED93E00E94E80484E18A95F1F790
:100D900029960FB6F894DEBF0FBECDBFDF91CF917D
:100DA000089580E80E94160524E12A95F1F78EE166
:100DB00091E00E94E80480EC0E94160584E18A9587
:100DC000F1F78FE091E00E94E8049FE32DE083E0DB
:100DD000915020408040E1F700C0000080EC0E946C
:100DE000160594E19A95F1F780E091E00E94E804FD
:100DF0002FE78AE196E0215080409040E1F700C063
:100E000000000895EF92FF920F931F93CF93DF930B
:100E1000E82E80E80E94160524E12A95F1F78091DA
:100E20001D0483781CF481508C6F8F5F8823ECF055
:100E300082301CF084306CF018C030E2E39EC001B8
:100E40001124EC01C359DD4F9C0123583D4F79011A
:100E500010C030E2E39EC0011124EC01C35DDE4FFF
:100E60009C01235C3E4F790104C0E12CF12CC0E0D1
:100E7000D0E0CE010E94E804FE0101900020E9F7D5
:100E80003197EC1BFD0B00E110E00E1B1109101651
:100E9000110654F4C0E080E20E94DB04CF5F8C2F87
:100EA00090E080179107BCF380EC0E94160534E1B6
:100EB0003A95F1F7C7010E94E804F701019000207C
:100EC000E9F73197EE19FF0900E110E00E1B110957
:100ED0001016110654F4C0E080E20E94DB04CF5FDC
:100EE0008C2F90E080179107BCF3DF91CF911F9179
:100EF0000F91FF90EF9008950E9489000E94E203F5
:100F00000E94160383B7817F846083BF0E94B1076C
:100F10000E94E2070E94F5022FE38DE093E021504A
:100F200080409040E1F700C00000F4CF229A239A5D
:100F3000249A259A219A519A599A83EC99E001971B
:100F4000F1F700C00000209A289A83EC99E00197FD
:100F5000F1F700C0000055985D9A549A539A5B9837
:100F600008950E9496070E94230508952A982B98B9
:100F70002C982D98229823982498259882E085B95A
:100F80002198289820982F9827982F985D98559801
:100F90005C9854985B985398599851980895589A2A
:100FA00087EA91E60197F1F700C00000089558988C
:100FB0002FE38DE093E0215080409040E1F700C0A6
:100FC000000008950E94CF070E94D70708950F934D
:100FD0001F93CF93DF9300D000D01F92CDB7DEB721
:100FE0008C011D821C821B821A82198284B141E00D
:100FF00050E002C0440F551F6A95E2F7842B84B974
:1010000095B1842F8095982395B9E3E9F1E1319763
:10101000F1F700C0000095B1942B95B9FDE0FA9569
:10102000F1F7000094B1892384B980E003C08150B6
:1010300009F458C023B130E024233523232BB9F31E
:1010400020E003C0215009F44FC083B190E0842315
:101050009523892BB9F788E2B0E0A7E061E070E062
:1010600003C0915011F442C090E023B130E024233A
:101070003523232BB1F390E006C023E02A95F1F746
:1010800000009F5FA9F123B130E024233523232BF7
:10109000A1F7923080F0E1E0F0E0EC0FFD1FEB0FE4
:1010A000F11D90819B010A2E02C0220F331F0A946A
:1010B000E2F7292B2083A11103C0BF5FA7E001C085
:1010C000A150815089F649812B81342F320F9D81A7
:1010D000391310C050E0F8015183408330E033836E
:1010E000228309C08EEF07C08EEF05C08EEF03C0CC
:1010F0008EEF01C08FEF0F900F900F900F900F9019
:10110000DF91CF911F910F91089580E030E020E0B2
:1011100051E060E042E08F5F982F931B933010F016
:10112000211187C0953008F47AC0222309F483C0C6
:1011300076C0962FE3E2F4EF3197F1F700C000009C
:101140002F5FE1E1FAE73197F1F700C00000382F97
:10115000992309F3923011F420912D0420932D044A
:10116000233091F028F4213049F0223051F02FC083
:10117000253039F1E8F0263039F129C00E94F50216
:1011800039C00E94E60236C00E9496070E942305DD
:101190000E947C050E94E602FFE72FE482E1F15005
:1011A00020408040E1F700C000000E947E0522C080
:1011B0000E9480010E942A010E94D6010E948F0590
:1011C00019C00E947C0616C00E94D10613C00E945E
:1011D00096070E9423050E947C050E94F5029FEB62
:1011E000E7E2F9E09150E040F040E1F700C0000094
:1011F0000E947E052FE382E49FE0215080409040D2
:10120000E1F700C000000E94B60710922104089583
:10121000E1E1FAE73197F1F700C000007CCF4E9989
:10122000F7CF87CFE1E1FAE73197F1F700C000008F
:1012300091CF952F01C0942F4E9B7CCFF3CF87FB8E
:10124000082E062687FD819567FD61950E9433096A
:101250000EF4919507FC81950895EE0FFF1F059000
:10126000F491E02D0994991B79E004C0991F961719
:1012700008F0961B881F7A95C9F780950895BB27BB
:101280004A3031F4992322F4BDE2909581959F4F25
:101290000C944B09BB27FB015527AA27880F991FE0
:1012A000AA1FA41710F0A41B83955051B9F7A05D95
:1012B000AA3308F0A95DA193009779F7B111B19312
:1012C0001192CB010C946409DC01FC01672F719130
:1012D0007723E1F7329704C07C916D93708362911C
:0C12E000AE17BF07C8F30895F894FFCFC5
:1012EC004A756C2031312C20323031372020004CA3
:1012FC0043442D41546D6567613332387000496E3B
:10130C00736F6F204B696D202020202000736E615D
:10131C006700000000000000000000000068696425
:10132C0064656E4F62737461636C6500006D697304
:10133C0073696F6E2D61676E6F7374696367656E29
:10134C004170706C696361626C6500000064656576
:10135C00702D7374656443756C7475726566726117
:10136C00637475726564526C746E73687074756DA9
:10137C00756C74000000000000000000006C6F75BC
:10138C0064436E6673644E736542794D73736F621A
:10139C006572696E67000000000000000074656EE5
:1013AC0064696E67326D6B536F626572006D697341
:1013BC006361727261676500000000000062727404
:1013CC0068426279416C7264446440576D636C612D
:1013DC0073732D6163746E4C77537400006C61777A
:1013EC0053756974546F67657468657200626C69D3
:1013FC0073746572000000000000000000666C75DC
:10140C006964506F636B657400000000007469744C
:10141C00746572000000000000000000006C617533
:10142C00676851756965744E7276736C796C696E08
:10143C006520636F6F6B000000000000006120638B
:10144C006F6F6B20696E4B69746368656E7375633F
:10145C0063756D62000000000000000000666169A9
:10146C006C20746F2072657369737400006172690B
:10147C00640000000000000000000000006C636BC2
:10148C0067537566665774722F5261696E656E6C20
:10149C006976656E0000000000000000006867744B
:1014AC006E2F696E74656E7369667900006C757267
:1014BC00636800000000000000000000006D762052
:1014CC006162727570746C7900000000006F626C60
:1014DC006976696F757320746F000000006C636B24
:1014EC0067436E7363734177726E4F660077746EE9
:1014FC00206120776869736B6572206F66657874FC
:10150C0072656D656C79436C6F73652032636F6CBB
:10151C006C6F69640000000000000000006D6978C9
:10152C005770726F704274536F6C5375737265742D
:10153C006963656E7400000000000000006469734C
:10154C00636C696E65643274616C6B0000707279E7
:10155C007E617061727400000000000000666F72A2
:10156C006365326765745374684F70656E65736F2D
:10157C0074657269630000000000000000636E6611
:10158C006E64326F6E79456E6C67746E6448004C95
:10159C0000486F75723A20004D696E3A20007365F1
:1015AC00633A200031313A31353A313000466562C8
:1015BC0020313320323031390020202020202020CF
:1015CC0020202020002F0054656D703A0048756D66
:1015DC0069646974793A00526561647920746F208A
:1015EC0072756E21004E6F772C736C6565702E4290
:0415FC0079652E00DF
:00000001FF
