S01C00004C43445F5254435F4453313330375F44485431312E737265638B
S11300000C944E000C9468030C946B000C946B00DD
S11300100C946B000C949E030C948B040C946B0056
S11300200C946B000C946B000C946B000C946B00A0
S11300300C946B000C946B000C946B000C946B0090
S11300400C946B000C946B000C946B000C946B0080
S11300500C946B000C946B000C946B000C946B0070
S11300600C946B000C946B003E0247025002590240
S113007062026B02740267046B0467046F04670412
S11300806F04670467046F0467046F04670427063A
S11300903006390642064B0654065D0611241FBE7F
S11300A0CFEFD8E0DEBFCDBF14E0A0E0B1E0E8E3DD
S11300B0F3E102C005900D92A431B107D9F724E011
S11300C0A4E1B4E001C01D92AE32B207E1F70E9490
S11300D079070C949A090C940000229A239A249A82
S11300E0259A549A5C98539A5B98219A299A519A22
S11300F00895569857980895209A289A52980895E2
S1130100559A5D980895509A58980895269A2E986D
S113011008950E946D000E9479000E947C000E9454
S113012080000E9483000E9486000895CF93DF938D
S113013000D000D0CDB7DEB7559A5D9A2FE986E896
S113014091E0215080409040E1F700C0000067E05A
S1130150CE0101960E94E2072FE986E891E0215042
S113016080409040E1F700C0000067E0CE010196B6
S11301700E94E2078B81809325049981909329043E
S11301804AE066E274E090E00E94650980912904E7
S11301904AE062E274E090E00E9465090F900F90DB
S11301A00F900F90DF91CF910895EF92FF920F93EC
S11301B01F93CF93DF93EC017B018A0162E080ED12
S11301C00E945303888361E080ED0E945303F7018A
S11301D0808360E080ED0E945303F801808398815E
S11301E096FF03C09F71988302C09F739883DF9129
S11301F0CF911F910F91FF90EF900895EF92FF928E
S11302000F931F93CF93DF937C018B01EA0165E089
S113021080ED0E945303F701808364E080ED0E9427
S11302205303F801808366E080ED0E9453038883C2
S1130230DF91CF911F910F91FF90EF900895CF938D
S1130240DF93EC0163E080ED0E9453038883DF9128
S1130250CF9108950F931F93CF93DF9300D01F92F4
S1130260CDB7DEB700E010E080E80E94130584E11A
S11302708A95F1F781EB93E00E94E40480911E04D7
S11302804AE0BE016F5F7F4F082E000C990B0E945D
S11302906509CE0101960E94E40483EE93E00E9476
S11302A0E40489B1E7EAF1E63197F1F700C0000010
S11302B086FD0CC080911E048F5F883124F48093E6
S11302C01E04012F03C010921E04012F1F5F812FF3
S11302D0801B893038F481E19AE70197F1F700C077
S11302E00000C2CFE1E1FAE73197F1F700C0000066
S11302F00F900F900F90DF91CF911F910F91089560
S11303000F931F93CF93DF9300D01F92CDB7DEB727
S113031000E010E080E80E94130584E18A95F1F77B
S113032088EB93E00E94E40480911D044AE0BE013E
S11303306F5F7F4F082E000C990B0E946509CE0158
S113034001960E94E40483EE93E00E94E40489B1E0
S1130350E7EAF1E63197F1F700C0000086FD0CC032
S113036080911D048F5F8C3324F480931D04012F2E
S113037003C010921D04012F1F5F812F801B893041
S113038038F481E19AE70197F1F700C00000C2CF89
S1130390E1E1FAE73197F1F700C000000F900F9008
S11303A00F90DF91CF911F910F9108950F931F9399
S11303B0CF93DF9300D01F92CDB7DEB700E010E0FB
S11303C080E80E94130584E18A95F1F78EEB93E0AF
S11303D00E94E40480911C044AE0BE016F5F7F4FD9
S11303E0082E000C990B0E946509CE0101960E940B
S11303F0E40483EE93E00E94E40489B1E7EAF1E6C1
S11304003197F1F700C0000086FD0CC080911C04F8
S11304108F5F8C3324F480931C04012F03C010924B
S11304201C04012F1F5F812F801B893038F481E168
S11304309AE70197F1F700C00000C2CFE1E1FAE7C3
S11304403197F1F700C000000F900F900F90DF91EB
S1130450CF911F910F910895CF93DF9300D000D0D7
S11304601F92CDB7DEB790E0FC013197E730F1057C
S113047008F043C0EC5CFF4F0C9453098DE49FE6F5
S1130480AEE6B0E089839A83AB83BC833EC084E547
S113049095E7A5E6B0E089839A83AB83BC8335C036
S11304A087E595E6A4E6B0E089839A83AB83BC83B1
S11304B02CC084E598E6A5E7B0E089839A83AB83F2
S11304C0BC8323C086E492E7A9E6B0E089839A83DB
S11304D0AB83BC831AC083E591E6A4E7B0E08983CB
S11304E09A83AB83BC8311C083E595E7AEE6B0E0A5
S11304F089839A83AB83BC8308C08FE39FE3AFE314
S1130500B0E089839A83AB83BC83CE0101960E94B9
S1130510E4040F900F900F900F900F90DF91CF9104
S11305200895CF93DF9300D000D0CDB7DEB7AE01EE
S11305304D5F5F4FBE016E5F7F4FCE0101960E94FB
S1130540FE0089810E946B058FE20E94D7048A8194
S11305500E946B058FE20E94D7048B810E946B0579
S113056080E20E94D704CE0104960E941F018C8170
S11305700E942C020F900F900F900F90DF91CF915B
S11305800895CF93DF9300D01F92CDB7DEB7AE01AD
S11305904D5F5F4FBE016E5F7F4FCE0101960E949B
S11305A0D50089810E946B058AE30E94D7048A8161
S11305B00E946B058AE30E94D7048B810E946B051D
S11305C00F900F900F90DF91CF91089580E80E94D3
S11305D013050E94C10288E00E947D0580EC0E9400
S11305E0130588E00E947D0508950E94960080E826
S11305F00E9413050E94C10285E00E947D0586E2E7
S113060094E00E94E40483E40E94D70480EC0E94F6
S113061013050E94910281E00E947D0582E294E02C
S11306200E94E40485E20E94D70408951092B90060
S11306308DEF8093B800089594EA9093BC00ECEB9E
S1130640F0E090819923ECF78093BB0084E88093D9
S1130650BC00ECEBF0E080818823ECF79091B900CA
S1130660987F81E0983109F080E008958093BB0081
S113067084E88093BC00ECEBF0E080818823ECF705
S11306809091B900987F81E0983209F480E0089550
S113069084E88093BC00ECEBF0E080818823ECF7E5
S11306A08091BB000895CF93DF93C82FD62F0E946B
S11306B01C038D2F0E94360381E08C0F0E941C03C3
S11306C00E94480394E99093BC00DF91CF91089570
S11306D01F920F920FB60F9211242F933F934F93B3
S11306E05F936F937F938F939F93AF93BF93EF9396
S11306F0FF9380912B0490912C04019690932C04E9
S113070080932B04039749F481E0809314040E949E
S1130710DD0710922C0410922B04FF91EF91BF91EE
S1130720AF919F918F917F916F915F914F913F9185
S11307302F910F900FBE0F901F9018951F920F923C
S11307400FB60F9211242F933F934F935F936F93A0
S11307507F938F939F93AF93BF93EF93FF93809176
S1130760200491E0980F9093200480FD1AC080919A
S1130770210481110DC00E9491070E94200583EC81
S113078099E00197F1F700C0000081E08093210413
S11307904E990E9495088FE493EC0197F1F700C0FD
S11307A00000FF91EF91BF91AF919F918F917F9145
S11307B06F915F914F913F912F910F900FBE0F90CA
S11307C01F901895F894E8E6F0E0808184608083B7
S11307D0EDE6F0E0808180648083789408958091D0
S11307E01C04885F80931C0420911504285F2093C7
S11307F015048C335CF090911D049F5F90931D044D
S11308006CE30E9445099E5F90931C042C3364F0B2
S1130810809116048F5F80931604822F6CE30E94EC
S113082045099E5F9093150480911D048C3354F008
S11308306CE30E94450990931D0480911E048F5F10
S113084080931E04809116048C3361F480911C04FF
S1130850845180931C0410921604809117048F5FB6
S11308608093170480911E04883104F110921E04B1
S1130870809119048F5F80931904809118048F5F0D
S113088087301CF48093180411C093E98902912DD8
S11308901124980F9595959587FD9395292F220FEF
S11308A0220F220F291B821B8093180420911A0403
S11308B0822F022E000C990BAA0BBB0BFC01319763
S11308C0EC30F10560F4E55CFF4F0C9453098FE1C3
S11308D080932A0407C08CE180932A0403C08EE12C
S11308E080932A049091190480912A04891734F47E
S11308F081E0809319042F5F20931A0480911A04D5
S11309008D3044F081E080931A0480911B048F5F42
S113091080931B0408951F920F920FB60F92112417
S11309202F933F934F935F936F937F938F939F93F3
S1130930AF93BF93EF93FF930E94EF0380911F0443
S11309409DEC899F912D1124969596959695990FD6
S1130950292F220F220F920F891B0E94FF068091DC
S11309601F048F5F80931F04FF91EF91BF91AF919C
S11309709F918F917F916F915F914F913F912F91B3
S11309800F900FBE0F901F9018952A9888230CF48F
S11309902A9A2B9886FD2B9A2C9885FD2C9A2D98B3
S11309A084FD2D9A5C9A00005C9800000895CF9312
S11309B0C82F5B9A5C980E94C5048C2F8295807F17
S11309C00E94C504CF9108950F931F93CF93DF9393
S11309D000D0CDB7DEB78C011A821982E981FA8181
S11309E0E80FF91F80818823B9F0E981FA81E00FCB
S11309F0F11F80810E94D70429813A812F5F3F4FE4
S1130A003A83298384E18A95F1F7E981FA81E00F39
S1130A10F11F80818111E9CF0F900F90DF91CF9169
S1130A201F910F910895CF93C82F5B985C980E94F3
S1130A30C5048C2F8295807F0E94C504CF910895B0
S1130A408FE097E20197F1F700C000005B985C9893
S1130A5080E30E94C50481EE94E00197F1F700C0A1
S1130A60000080E30E94C5048FE295E70197F1F747
S1130A7000C0000080E30E94C50483EC99E0019764
S1130A80F1F700C0000088E20E94C50494E19A9541
S1130A90F1F788E20E94130584E18A95F1F788E072
S1130AA00E94130594E19A95F1F781E00E941305E1
S1130AB087EE93E00197F1F700C0000086E00E9402
S1130AC0130594E19A95F1F78CE00E94130584E1F3
S1130AD08A95F1F70895CF93C82F82958F70805D22
S1130AE00E94D7048C2F8F70805D0E94D704CF9111
S1130AF0089529980895299A0895CF93DF93882318
S1130B0041F0D82FC0E080E20E94D704CF5FCD131C
S1130B10FACFDF91CF910895CF93DF93CDB7DEB7AE
S1130B206C970FB6F894DEBF0FBECDBF80E80E946D
S1130B30130584E18A95F1F780911E044AE0BE0111
S1130B40695F7F4F082E000C990B0E946509809104
S1130B501D044AE0BE016C5F7F4F082E000C990B08
S1130B600E94650980911C044AE0BE016F5F7F4FBB
S1130B70082E000C990B0E946509CE0107960E946D
S1130B80E4048BEE93E00E94E404CE0104960E94F8
S1130B90E4048BEE93E00E94E404CE0101960E94EB
S1130BA0E40489ED93E00E94E40484E18A95F1F77A
S1130BB080EC0E94130584E18A95F1F780911B046F
S1130BC04AE0BE01665F7F4F082E000C990B0E941D
S1130BD0650980911A044AE0BE01635F7F4F082EC5
S1130BE0000C990B0E946509809119044AE0BE012A
S1130BF0605F7F4F082E000C990B0E946509CE019F
S1130C000A960E94E40485EE93E00E94E404CE0177
S1130C100D960E94E40485EE93E00E94E404CE0164
S1130C2040960E94E40483EE93E00E94E404E09181
S1130C3018048E2FEE0F990BAA0BBB0B873091056E
S1130C4008F043C0FC01E95BFF4F0C94530983E5B2
S1130C5095E7AEE6B0E08B8B9C8BAD8BBE8B35C03D
S1130C608DE49FE6AEE6B0E08B8B9C8BAD8BBE8BA8
S1130C702CC084E595E7A5E6B0E08B8B9C8BAD8B0F
S1130C80BE8B23C087E595E6A4E6B0E08B8B9C8BF6
S1130C90AD8BBE8B1AC084E598E6A5E7B0E08B8BDC
S1130CA09C8BAD8BBE8B11C086E492E7A9E6B0E0C5
S1130CB08B8B9C8BAD8BBE8B08C083E591E6A4E740
S1130CC0B0E08B8B9C8BAD8BBE8BCE0143960E9488
S1130CD0E4048FED93E00E94E40484E18A95F1F743
S1130CE06C960FB6F894DEBF0FBECDBFDF91CF91E7
S1130CF00895CF93DF93CDB7DEB729970FB6F89455
S1130D00DEBF0FBECDBF80EC0E94130584E18A953F
S1130D10F1F7809117044AE0BE01695F7F4F082E06
S1130D20000C990B0E946509809116044AE0BE01EB
S1130D306C5F7F4F082E000C990B0E94650980910F
S1130D4015044AE0BE016F5F7F4F082E000C990B1B
S1130D500E946509CE0107960E94E4048BEE93E09D
S1130D600E94E404CE0104960E94E4048BEE93E016
S1130D700E94E404CE0101960E94E4048DED93E008
S1130D800E94E40484E18A95F1F729960FB6F89459
S1130D90DEBF0FBECDBFDF91CF91089580E80E94E2
S1130DA0130524E12A95F1F78EE191E00E94E40411
S1130DB080EC0E94130584E18A95F1F78FE091E0BD
S1130DC00E94E4049FE32DE083E0915020408040A2
S1130DD0E1F700C0000080EC0E94130594E19A95AD
S1130DE0F1F780E091E00E94E4042FE78AE196E0C5
S1130DF0215080409040E1F700C000000895EF9238
S1130E00FF920F931F93CF93DF93E82E80E80E9405
S1130E10130524E12A95F1F790911D0493781CF4AD
S1130E2091509C6F9F5F9923ECF092301CF09430AA
S1130E306CF018C030E2E39EC0011124EC01C359E8
S1130E40DD4F9C0123583D4F790110C030E2E39EF1
S1130E50C0011124EC01C35DDE4F9C01235C3E4FB5
S1130E60790104C0E12CF12CC0E0D0E0CE010E9455
S1130E70E404FE0101900020E9F73197EC1BFD0B1F
S1130E8000E110E00E1B11091016110654F4C0E025
S1130E9080E20E94D704CF5F2C2F30E02017310767
S1130EA0BCF380EC0E94130534E13A95F1F7C701D5
S1130EB00E94E404F70101900020E9F73197EE194C
S1130EC0FF0900E110E00E1B11091016110654F47D
S1130ED0C0E080E20E94D704CF5F8C2F90E080179F
S1130EE09107BCF3DF91CF911F910F91FF90EF9089
S1130EF008950E9489000E94E2030E94160383B7AA
S1130F00817F846083BF0E94AC070E94F5022FE3B7
S1130F108DE093E0215080409040E1F700C0000054
S1130F20F4CF229A239A249A259A219A519A599A6B
S1130F3083EC99E00197F1F700C00000209A289A09
S1130F4083EC99E00197F1F700C0000055985D9A91
S1130F50549A539A5B9808950E9491070E94200521
S1130F6008952A982B982C982D98229823982498A1
S1130F70259882E085B92198289820982F98279859
S1130F802F985D9855985C9854985B985398599805
S1130F9051980895589A87EA91E60197F1F700C0AD
S1130FA00000089558982FE38DE093E0215080408D
S1130FB09040E1F700C0000008950E94CA070E9413
S1130FC0D2070895EF92FF920F931F93CF93DF936D
S1130FD000D000D01F92CDB7DEB77C011D821C82E9
S1130FE01B821A82198284B141E050E0062E02C0AD
S1130FF0440F551F0A94E2F7842B84B995B1242F2A
S11310002095922395B983E991E10197F1F700C006
S1131010000095B1942B95B99DE09A95F1F70000E5
S113102084B1822384B980E003C0815009F45AC09A
S113103023B130E024233523232BB9F35DC02150A1
S113104011F452C02FEF83B190E084239523892BB0
S1131050B1F788E210E0A7E003C0915031F446C034
S1131060B0E061E070E007E09B2F23B130E024237F
S11310703523232B91F39B2F06C0E3E0EA95F1F788
S113108000009F5FA9F123B130E024233523232BF3
S1131090A1F7923080F0E1E0F0E0EC0FFD1FE10FEA
S11310A0F11D90819B010A2E02C0220F331F0A9466
S11310B0E2F7292B2083A11103C01F5FA02F01C0D9
S11310C0A150815089F649812B81922F940F3D8143
S11310D0391310C050E0F7015183408330E033836B
S11310E0228317C08EEF15C08EEF13C08EEF11C090
S11310F08EEF0FC08FEF0DC083B190E002C09595C5
S113110087956A95E2F780FD9DCF88E210E0A7E01D
S1131110A7CF0F900F900F900F900F90DF91CF916A
S11311201F910F91FF90EF90089580E030E020E050
S113113061E040E052E08F5F982F931B933018F0EA
S11311402111A0C08AC0953008F491C0222309F46B
S113115081C08DC04E9910C0942F05C0952F03C037
S1131160942F01C0962FE3E2F4EF3197F1F700C01A
S113117000002F5F382F01C0942FE1E1FAE7319787
S1131180F1F700C000009923B1F2923011F42091DC
S11311902D0420932D04233091F028F4213049F0BC
S11311A0223051F02FC0253039F1E8F0263039F1E2
S11311B029C00E94F50239C00E94E60236C00E948E
S11311C091070E9420050E9479050E94E602FFEB28
S11311D027E289E0F15020408040E1F700C00000A0
S11311E00E947B0522C00E9480010E942A010E9465
S11311F0D6010E948C0519C00E94790616C00E946F
S1131200CE0613C00E9491070E9420050E94790512
S11312100E94F5029FEBE7E2F9E09150E040F040D4
S1131220E1F700C000000E947B052FE382E49FE009
S1131230215080409040E1F700C000000E94B107B7
S1131240109221040895E1E1FAE73197F1F700C023
S113125000009DCF4E99F7CF81CF9530D8F77ACF44
S1131260E1E1FAE73197F1F700C0000064CF4E994D
S1131270F7CF76CF81E19AE70197F1F700C000003C
S113128091E083CF4E99F6CF6DCF87FB082E0626CB
S113129087FD819567FD61950E9459090EF491952A
S11312A007FC81950895EE0FFF1F0590F491E02D42
S11312B00994991B79E004C0991F961708F0961BAE
S11312C0881F7A95C9F780950895BB274A3031F471
S11312D0992322F4BDE2909581959F4F0C94710956
S11312E0BB27FB015527AA27880F991FAA1FA417FC
S11312F010F0A41B83955051B9F7A05DAA3308F0F0
S1131300A95DA193009779F7B111B1931192CB0123
S11313100C948A09DC01FC01672F71917723E1F7B2
S1131320329704C07C916D9370836291AE17BF07AE
S10B1330C8F30895F894FFCFFF
S11313384A756C2031312C20323031372020004C52
S113134843442D41546D6567613332387000496EEA
S1131358736F6F204B696D202020202000736E610D
S113136867000000000000000000000000686964D5
S113137864656E4F62737461636C6500006D6973B4
S113138873696F6E2D61676E6F7374696367656ED9
S11313984170706C696361626C6500000064656526
S11313A8702D7374656443756C74757265667261C7
S11313B8637475726564526C746E73687074756D59
S11313C8756C74000000000000000000006C6F756C
S11313D864436E6673644E736542794D73736F62CA
S11313E86572696E67000000000000000074656E95
S11313F864696E67326D6B536F626572006D6973F1
S113140863617272616765000000000000627274B3
S113141868426279416C7264446440576D636C61DC
S113142873732D6163746E4C77537400006C617729
S113143853756974546F67657468657200626C6982
S113144873746572000000000000000000666C758B
S11314586964506F636B65740000000000746974FC
S1131468746572000000000000000000006C6175E3
S1131478676851756965744E7276736C796C696EB8
S11314886520636F6F6B000000000000006120633B
S11314986F6F6B20696E4B69746368656E737563EF
S11314A863756D6200000000000000000066616959
S11314B86C20746F207265736973740000617269BB
S11314C8640000000000000000000000006C636B72
S11314D867537566665774722F5261696E656E6CD0
S11314E86976656E000000000000000000686774FB
S11314F86E2F696E74656E7369667900006C757217
S1131508636800000000000000000000006D762001
S11315186162727570746C7900000000006F626C0F
S11315286976696F757320746F000000006C636BD3
S113153867436E7363734177726E4F660077746E98
S1131548206120776869736B6572206F66657874AB
S113155872656D656C79436C6F73652032636F6C6B
S11315686C6F69640000000000000000006D697879
S11315785770726F704274536F6C537573726574DD
S11315886963656E740000000000000000646973FC
S1131598636C696E65643274616C6B000070727997
S11315A87E617061727400000000000000666F7252
S11315B86365326765745374684F70656E65736FDD
S11315C874657269630000000000000000636E66C1
S11315D86E64326F6E79456E6C67746E6448004C45
S11315E800486F75723A20004D696E3A20007365A1
S11315F8633A200031313A30323A3032004665627B
S1131608203133203230313900202020202020207E
S113161820202020002F0054656D703A0048756D15
S113162869646974793A00526561647920746F2039
S113163872756E21004E6F772C736C6565702E423F
S107164879652E008E
S9030000FC
