:100000000C9447000C9464000C9464000C94F5016B
:100010000C9464000C9464000C94FB020C94640037
:100020000C9464000C9464000C9464000C946400C0
:100030000C9464000C9464000C9464000C946400B0
:100040000C9464000C9464000C9464000C946400A0
:100050000C9464000C9464000C9464000C94640090
:100060000C9464000C946400D702DB02D702DF0218
:10007000D702DF02D702D702DF02D702DF02D702A0
:100080009704A004A904B204BB04C404CD04112441
:100090001FBECFEFD8E0DEBFCDBF14E0A0E0B1E0DF
:1000A000E0E0F6E102C005900D92AA36B107D9F75B
:1000B00024E0AAE6B4E001C01D92A138B207E1F73E
:1000C0000E9431060C94FE0A0C940000579A569A2E
:1000D000559A549A539A5B98529A5A98209A289A09
:1000E000269A2E98089524980895279A2F9808956F
:1000F000229A2A980895239A2B9808950E946600C0
:100100000E9473000E9475000E9478000E947B008C
:1001100008950F931F93CF93DF9300D000D0CDB7F6
:10012000DEB7229A2A9A2FE986E891E02150804092
:100130009040E1F700C0000061E0CE0101960E940E
:100140008C072FE986E891E0215080409040E1F74C
:1001500000C0000061E0CE0101960E948C07098179
:100160001A814AE06CE774E08B819C810E94C10A8D
:100170004AE069E774E0C8010E94C10A0F900F903D
:100180000F900F90DF91CF911F910F910895EF92F3
:10019000FF920F931F93CF93DF93EC017B018A01B2
:1001A00062E080ED0E94E001888361E080ED0E94C2
:1001B000E001F701808360E080ED0E94E001F8013A
:1001C0008083988196FF03C09F71988302C09F73BC
:1001D0009883DF91CF911F910F91FF90EF90089539
:1001E000EF92FF920F931F93CF93DF937C018B01CC
:1001F000EA0165E080ED0E94E001F701808364E0A0
:1002000080ED0E94E001F801808366E080ED0E94AD
:10021000E0018883DF91CF911F910F91FF90EF90C4
:100220000895CF93DF93EC0163E080ED0E94E0013D
:100230008883DF91CF910895CF93DF9300D000D0D2
:10024000CDB7DEB7AE014D5F5F4FBE016E5F7F4F32
:10025000CE0101960E94F00089810E94DB038FE2AB
:100260000E9447038A810E94DB038FE20E944703BA
:100270008B810E94DB0380E20E944703CE0104963B
:100280000E9411018C810E94DB030F900F900F9050
:100290000F90DF91CF910895CF93DF9300D01F92FD
:1002A000CDB7DEB7AE014D5F5F4FBE016E5F7F4FD2
:1002B000CE0101960E94C70089810E94DB038AE378
:1002C0000E9447038A810E94DB038AE30E9447035E
:1002D0008B810E94DB030F900F900F90DF91CF91E5
:1002E000089580E80E9483030E944C0188E00E94E8
:1002F000EB0380EC0E9483030E941C0188E00E94B3
:10030000EB0308950E94890080E80E9483030E9405
:100310004C0181E00E94EB038CE794E00E945403BF
:1003200083E40E94470380EC0E9483030E941C0127
:1003300082E00E94EB0389E794E00E94540385E287
:100340000E94470308951092B9008DEF8093B80082
:10035000089594EA9093BC00ECEBF0E0908199232F
:10036000ECF78093BB0084E88093BC00ECEBF0E0FA
:1003700080818823ECF79091B900987F81E09831D3
:1003800009F080E008958093BB0084E88093BC006E
:10039000ECEBF0E080818823ECF79091B900987F36
:1003A00081E0983209F480E0089584E88093BC00ED
:1003B000ECEBF0E080818823ECF78091BB0008959E
:1003C000CF93DF93C82FD62F0E94A9018D2F0E94B3
:1003D000C30181E08C0F0E94A9010E94D50194E91C
:1003E0009093BC00DF91CF9108951F920F920FB6AA
:1003F0000F9211242F933F934F935F936F937F93AB
:100400008F939F93AF93BF93CF93DF93EF93FF931C
:100410008091770491E0980F9093770480FD2FC02E
:100420008091780481110DC00E943F080E949003C2
:1004300083EC99E00197F1F700C0000081E0809320
:1004400078041C9B16C0CBE6D0E088818F7E888321
:1004500081EE94E00197F1F700C000000E94750959
:1004600088818061888381EE94E00197F1F700C074
:1004700000008FE493EC0197F1F700C00000FF91BA
:10048000EF91DF91CF91BF91AF919F918F917F912C
:100490006F915F914F913F912F910F900FBE0F90F1
:1004A0001F901895F894E8E6F0E0808181608083E1
:1004B000EBE6F0E0808180618083789408958091FC
:1004C0007304885F8093730420916C04285F2093E9
:1004D0006C048C335CF0909174049F5F909374046F
:1004E0006CE30E94100A9E5F909373042C3364F0B7
:1004F00080916D048F5F80936D04822F6CE30E9466
:10050000100A9E5F90936C04809174048C3354F0B5
:100510006CE30E94100A90937404809175048F5FBD
:100520008093750480916D048C3361F48091730421
:1005300084518093730410926D0480916E048F5FD8
:1005400080936E0480917504883104F110927504D3
:10055000809170048F5F8093700480916F048F5F2F
:1005600087301CF480936F0411C093E98902912DA8
:100570001124980F9595959587FD9395292F220F16
:10058000220F220F291B821B80936F04209171047C
:10059000822F022E000C990BAA0BBB0BFC0131978A
:1005A000EC30F10560F4EC5CFF4F0C94320A8FE103
:1005B00080937F0407C08CE180937F0403C08EE1A9
:1005C00080937F049091700480917F04891734F4A4
:1005D00081E0809370042F5F2093710480917104F7
:1005E0008D3044F081E080937104809172048F5FBC
:1005F0008093720408951F920F920FB60F921124E8
:100600002F933F934F935F936F937F938F939F931A
:10061000AF93BF93EF93FF930E945F0280917604A4
:100620009DEC899F912D1124969596959695990FFD
:10063000292F220F220F920F891B0E948D05809176
:1006400076048F5F80937604FF91EF91BF91AF9115
:100650009F918F917F916F915F914F913F912F91DA
:100660000F900FBE0F901F9018955F9888230CF481
:100670005F9A5E9886FD5E9A5D9885FD5D9A5C98AE
:1006800084FD5C9A5B9A00005B9800000895CF930C
:10069000C82F5A9A5B980E9435038C2F8295807FD1
:1006A0000E943503CF9108950F931F93CF93DF934B
:1006B00000D0CDB7DEB78C011A821982E981FA81A8
:1006C000E80FF91F80818823B9F0E981FA81E00FF2
:1006D000F11F80810E94470329813A812F5F3F4F9C
:1006E0003A83298384E18A95F1F7E981FA81E00F61
:1006F000F11F80818111E9CF0F900F90DF91CF9191
:100700001F910F910895CF93C82F5A985B980E941C
:1007100035038C2F8295807F0E943503CF910895F9
:100720008FE097E20197F1F700C000005A985B98BC
:1007300080E30E94350381EE94E00197F1F700C059
:10074000000080E30E9435038FE295E70197F1F7FF
:1007500000C0000080E30E94350383EC99E001971C
:10076000F1F700C0000088E20E94350394E19A95F9
:10077000F1F788E20E94830384E18A95F1F788E02B
:100780000E94830394E19A95F1F781E00E9483032C
:1007900087EE93E00197F1F700C0000086E00E9429
:1007A000830394E19A95F1F78CE00E94830384E13E
:1007B0008A95F1F70895CF93C82F82958F70805D49
:1007C0000E9447038C2F8F70805D0E944703CF915A
:1007D000089528980895CF93DF93882341F0D82F68
:1007E000C0E080E20E944703CF5FCD13FACFDF91D4
:1007F000CF910895289A0895CF93DF93CDB7DEB7B0
:100800006C970FB6F894DEBF0FBECDBF80E80E9494
:10081000830384E18A95F1F7809175044AE0BE0173
:10082000695F7F4F082E000C990B0E94C10A8091CE
:1008300074044AE0BE016C5F7F4F082E000C990BD8
:100840000E94C10A809173044AE0BE016F5F7F4F2E
:10085000082E000C990B0E94C10ACE0107960E9437
:10086000540385EF93E00E945403CE0104960E9446
:10087000540385EF93E00E945403CE0101960E9439
:10088000540383EE93E00E94540384E18A95F1F7C8
:1008900080EC0E94830384E18A95F1F780917204D1
:1008A0004AE0BE01665F7F4F082E000C990B0E9444
:1008B000C10A809171044AE0BE01635F7F4F082E38
:1008C000000C990B0E94C10A809170044AE0BE019D
:1008D000605F7F4F082E000C990B0E94C10ACE0169
:1008E0000A960E9454038FEE93E00E945403CE01B7
:1008F0000D960E9454038FEE93E00E945403CE01A4
:1009000040960E9454038DEE93E00E945403E091C0
:100910006F048E2FEE0F990BAA0BBB0B873091053E
:1009200008F043C0FC01E05CFF4F0C94320A83E501
:1009300095E7AEE6B0E08B8B9C8BAD8BBE8B35C064
:100940008DE49FE6AEE6B0E08B8B9C8BAD8BBE8BCF
:100950002CC084E595E7A5E6B0E08B8B9C8BAD8B36
:10096000BE8B23C087E595E6A4E6B0E08B8B9C8B1D
:10097000AD8BBE8B1AC084E598E6A5E7B0E08B8B03
:100980009C8BAD8BBE8B11C086E492E7A9E6B0E0EC
:100990008B8B9C8BAD8BBE8B08C083E591E6A4E767
:1009A000B0E08B8B9C8BAD8BBE8BCE0143960E94AF
:1009B000540389EE93E00E94540384E18A95F1F791
:1009C0006C960FB6F894DEBF0FBECDBFDF91CF910E
:1009D0000895CF93DF93CDB7DEB729970FB6F8947C
:1009E000DEBF0FBECDBF80EC0E94830384E18A95F9
:1009F000F1F780916E044AE0BE01695F7F4F082ED7
:100A0000000C990B0E94C10A80916D044AE0BE015E
:100A10006C5F7F4F082E000C990B0E94C10A8091D9
:100A20006C044AE0BE016F5F7F4F082E000C990BEB
:100A30000E94C10ACE0107960E94540385EF93E0FD
:100A40000E945403CE0104960E94540385EF93E064
:100A50000E945403CE0101960E94540387EE93E056
:100A60000E94540384E18A95F1F729960FB6F89411
:100A7000DEBF0FBECDBFDF91CF91089580E80E9409
:100A8000830324E12A95F1F78FE391E00E94540358
:100A900080EC0E94830384E18A95F1F780E391E082
:100AA0000E9454039FE32DE083E09150204080405A
:100AB000E1F700C0000080EC0E94830394E19A9566
:100AC000F1F781E291E00E9454032FE78AE196E07A
:100AD000215080409040E1F700C00000089580E878
:100AE0000E94830324E12A95F1F780E191E00E94BE
:100AF000540380EC0E94830384E18A95F1F780E03F
:100B000091E00E9454039FEB27E289E0915020403E
:100B10008040E1F700C000000895EF92FF920F932C
:100B20001F93CF93DF93E82E80E80E94830324E194
:100B30002A95F1F79091740493781CF491509C6F6E
:100B40009F5F9923ECF092301CF094306CF018C049
:100B500030E2E39EC0011124EC01C257DD4F9C013D
:100B600022563D4F790110C030E2E39EC0011124AE
:100B7000EC01C25BDE4F9C01225A3E4F790104C05A
:100B8000E12CF12CC0E0D0E0CE010E945403FE0124
:100B900001900020E9F73197EC1BFD0B00E110E01C
:100BA0000E1B11091016110654F4C0E080E20E94D9
:100BB0004703CF5F2C2F30E020173107BCF380ECC8
:100BC0000E94830334E13A95F1F7C7010E94540370
:100BD000F70101900020E9F73197EE19FF0900E1D4
:100BE00010E00E1B11091016110654F4C0E080E24B
:100BF0000E944703CF5F8C2F90E080179107BCF3D2
:100C0000DF91CF911F910F91FF90EF9008950E9477
:100C10003F080E94900389EF90E00197F1F700C030
:100C2000000080E80E94830394E19A95F1F781E047
:100C300094E00E94540380EC0E94830324E12A95EF
:100C4000F1F78FE094E00E9454038FEB97E229E0E4
:100C5000815090402040E1F700C000000E945A08F7
:100C600008950E947E000E9452020E94A3010E94E9
:100C700054060E94070683B7817F846083BF83B7D1
:100C8000816083BF889583B78E7F83BFF8CF8091C3
:100C90007004082E000C990B419767E070E00E94E9
:100CA0001E0A80936F0408951F93CF93DF93CDB7EF
:100CB000DEB7E4970FB6F894DEBF0FBECDBF65EF89
:100CC00073E08EE194E00E94850ABC01FC01808102
:100CD0008823E9F020E011E0120F30E0C901880F0D
:100CE000991F820F931F21E030E02C0F3D1F820FD0
:100CF000931F0E94930A65EF73E080E090E00E94EA
:100D0000850ABC01212FFC0180818111E4CFCE0135
:100D100001960E94670A80937504CE0104960E9492
:100D2000670A80937404CE0107960E94670A815F68
:100D3000809373046DEE73E087ED93E00E94850A63
:100D4000BC01FC018081882319F120E011E0120F21
:100D500030E0C901880F991F220F331F220F331F64
:100D6000220F331F820F931F2DE030E02C0F3D1F09
:100D7000820F931F0E94930A6DEE73E080E090E073
:100D80000E94850ABC01212FFC0180818111DECFE8
:100D900067E274E0CE010D960E948A0A892B21F445
:100DA00081E08093710483C06BE274E0CE010D9604
:100DB0000E948A0A892B21F482E08093710477C013
:100DC0006FE274E0CE010D960E948A0A892B21F40D
:100DD00083E0809371046BC063E374E0CE010D96F1
:100DE0000E948A0A892B21F484E0809371045FC0F9
:100DF00067E374E0CE010D960E948A0A892B21F4E4
:100E000085E08093710453C06BE374E0CE010D96CE
:100E10000E948A0A892B21F486E08093710447C0DE
:100E20006FE374E0CE010D960E948A0A892B21F4AB
:100E300087E0809371043BC063E474E0CE010D96BB
:100E40000E948A0A892B21F488E0809371042FC0C4
:100E500067E474E0CE010D960E948A0A892B21F482
:100E600089E08093710423C06BE474E0CE010D9699
:100E70000E948A0A892B21F48AE08093710417C0AA
:100E80006FE474E0CE010D960E948A0A892B21F44A
:100E90008BE0809371040BC063E574E0CE010D9686
:100EA0000E948A0A892B19F48CE080937104CE0188
:100EB00047960E94670A80937004CE0181960E9433
:100EC000670AAC019C01369527953695279536958E
:100ED0002795A5ECB0E20E94380A929582958F7012
:100EE00089279F70892768EE73E0869F9001879F0E
:100EF000300D969F300D1124421B530B409372040A
:100F00000E944706E4960FB6F894DEBF0FBECDBF31
:100F1000DF91CF911F910895EF92FF920F931F934E
:100F2000CF93DF9300D000D01F92CDB7DEB77C0106
:100F30001D821C821B821A82198284B141E050E01A
:100F4000062E02C0440F551F0A94E2F7842B84B981
:100F500095B1242F2095922395B983E991E10197CA
:100F6000F1F700C0000095B1942B95B99DE09A95DA
:100F7000F1F7000084B1822384B980E003C081507E
:100F800009F45AC023B130E024233523232BB9F3CD
:100F90005DC0215011F452C02FEF83B190E0842343
:100FA0009523892BB1F788E210E0A7E003C09150A8
:100FB00031F446C0B0E061E070E007E09B2F23B160
:100FC00030E024233523232B91F39B2F06C0E3E04D
:100FD000EA95F1F700009F5FA9F123B130E02423E7
:100FE0003523232BA1F7923080F0E1E0F0E0EC0F05
:100FF000FD1FE10FF11D90819B010A2E02C0220FFF
:10100000331F0A94E2F7292B2083A11103C01F5F2D
:10101000A02F01C0A150815089F649812B81922FC8
:10102000940F3D81391310C050E0F7015183408384
:1010300030E03383228317C08EEF15C08EEF13C0CC
:101040008EEF11C08EEF0FC08FEF0DC083B190E017
:1010500002C0959587956A95E2F780FD9DCF88E25D
:1010600010E0A7E0A7CF0F900F900F900F900F9078
:10107000DF91CF911F910F91FF90EF900895579AB4
:10108000569A559A549A209A269A2E9A83EC99E069
:101090000197F1F700C00000279A2F9A83EC99E09E
:1010A0000197F1F700C0000022982A9A539A529AA9
:1010B0005A9808955F985E985D985C9857985698EE
:1010C0005598549881E085B920982F9827982998A9
:1010D000219829982A9822985B9853985A98529860
:1010E0002E98269808950F931F93CF93DF9300D0E7
:1010F0001F92CDB7DEB700E010E080E80E948303C6
:1011000084E18A95F1F787E594E00E945403809189
:1011100075044AE0BE016F5F7F4F082E000C990BEB
:101120000E94C10ACE0101960E9454038DEE93E005
:101130000E94540383B1E7EAF1E63197F1F700C06A
:10114000000084FD0CC0809175048F5F883124F409
:1011500080937504012F03C010927504012F1F5F47
:10116000812F801B893038F481E19AE70197F1F7EC
:1011700000C00000C2CFE1E1FAE73197F1F700C00B
:1011800000000F900F900F90DF91CF911F910F9162
:1011900008950F931F93CF93DF9300D01F92CDB785
:1011A000DEB700E010E080E80E94830384E18A95C6
:1011B000F1F78EE594E00E945403809174044AE0B4
:1011C000BE016F5F7F4F082E000C990B0E94C10A71
:1011D000CE0101960E9454038DEE93E00E945403C9
:1011E00083B1E7EAF1E63197F1F700C0000084FD32
:1011F0000CC0809174048F5F8C3324F4809374044A
:10120000012F03C010927404012F1F5F812F801BD8
:10121000893038F481E19AE70197F1F700C00000C6
:10122000C2CFE1E1FAE73197F1F700C000000F907B
:101230000F900F90DF91CF911F910F9108950F9311
:101240001F93CF93DF9300D01F92CDB7DEB700E09E
:1012500010E080E80E94830384E18A95F1F784E638
:1012600094E00E945403809173044AE0BE016F5FD2
:101270007F4F082E000C990B0E94C10ACE010196E7
:101280000E9454038DEE93E00E94540383B1E7EA79
:10129000F1E63197F1F700C0000084FD0CC08091A9
:1012A00073048F5F8C3324F480937304012F03C085
:1012B00010927304012F1F5F812F801B893038F437
:1012C00081E19AE70197F1F700C00000C2CFE1E1A8
:1012D000FAE73197F1F700C000000F900F900F90E0
:1012E000DF91CF911F910F91089580E030E020E0D1
:1012F00061E040E052E08F5F982F931B933018F02D
:1013000021118BC075C0953008F47CC0222309F4EC
:101310006CC078C01C9910C0942F05C0952F03C0D5
:10132000942F01C0962FE3E2F4EF3197F1F700C05C
:1013300000002F5F382F01C0942FE1E1FAE73197C9
:10134000F1F700C000009923B1F2923011F420911E
:10135000800420938004233091F028F4213049F058
:10136000223051F02BC0253019F1C8F0263019F188
:1013700025C00E94820124C00E94710121C00E94E8
:101380003F080E94E903FFE926E881E0F150204090
:101390008040E1F700C000000E94FA0311C00E94E3
:1013A000C9080E9473080E941F090E94FC0308C01C
:1013B0000E94E90405C00E943E0502C00E946F051C
:1013C0009FE3E2E4FFE09150E040F040E1F700C02D
:1013D00000000E945A0810927804089581E19AE76B
:1013E0000197F1F700C00000B2CF1C99F7CF96CF5C
:1013F0009530D8F78FCFE1E1FAE73197F1F700C0E8
:10140000000079CF1C99F7CF8BCF81E19AE7019744
:10141000F1F700C0000091E098CF1C99F6CF82CF81
:1014200087FB082E062687FD819567FD61950E9442
:10143000470A0EF4919507FC8195089597FB072EB6
:1014400016F4009407D077FD09D00E94530A07FCD8
:1014500005D03EF4909581959F4F089570956195C4
:101460007F4F0895EE0FFF1F0590F491E02D099432
:10147000A29FB001B39FC001A39F700D811D1124D5
:10148000911DB29F700D811D1124911D0895991B0E
:1014900079E004C0991F961708F0961B881F7A956B
:1014A000C9F780950895AA1BBB1B51E107C0AA1F6D
:1014B000BB1FA617B70710F0A61BB70B881F991FF5
:1014C0005A95A9F780959095BC01CD010895FC012E
:1014D00088279927E89421912032E9F3293010F0E8
:1014E0002E30C8F32B3241F02D3239F4689404C009
:1014F0000E94CC0A820F911D219120532A30C0F303
:101500001EF4909581959F4F08954AE654E00E94FD
:101510009A0A0895FB01DC018D9101908019011058
:10152000D9F3990B0895FB01DC0101900D92002085
:10153000E1F70895FA01A191B081009719F410978D
:10154000E1F0CD01DC01CD010D90002011F4C001CE
:1015500013C0FB012191222319F02015D9F7F3CFF5
:10156000FB012191201519F41E92119606C0222329
:10157000C1F70D900020A1F7D001FA01A193B0832B
:101580000895BB274A3031F4992322F4BDE29095A7
:1015900081959F4F0C94D50A7AE0979F902D879F55
:1015A000802D910D11240895BB27FB015527AA27F3
:1015B000880F991FAA1FA41710F0A41B83955051E0
:1015C000B9F7A05DAA3308F0A95DA193009779F758
:1015D000B111B1931192CB010C94EE0ADC01FC0124
:1015E000672F71917723E1F7329704C07C916D9357
:1015F00070836291AE17BF07C8F30895F894FFCFC8
:1016000032434B33544834424C35414A36415400FE
:10161000313A526479204F72205072657653656C6E
:10162000004A756C2031312C2032303137202000B7
:101630004C43442D41546D65676133323870004925
:101640006E736F6F204B696D202020202000736E19
:1016500061670000000000000000000000006869F1
:101660006464656E4F62737461636C6500006D69DC
:101670007373696F6E2D61676E6F737469636765ED
:101680006E4170706C696361626C65000000646536
:1016900065702D7374656443756C747572656672DC
:1016A00061637475726564526C746E73687074757E
:1016B0006D756C74000000000000000000006C6F8D
:1016C0007564436E6673644E736542794D73736FD0
:1016D000626572696E6700000000000000007465BA
:1016E0006E64696E67326D6B536F626572006D690F
:1016F00073636172726167650000000000006272CE
:101700007468426279416C7264446440576D636CE2
:101710006173732D6163746E4C77537400006C6158
:101720007753756974546F67657468657200626C8D
:101730006973746572000000000000000000666CB0
:10174000756964506F636B65740000000000746914
:1017500074746572000000000000000000006C61FD
:1017600075676851756965744E7276736C796C69CA
:101770006E6520636F6F6B00000000000000612049
:10178000636F6F6B20696E4B69746368656E737508
:101790006363756D62000000000000000000666178
:1017A000696C20746F2072657369737400006172D4
:1017B00069640000000000000000000000006C638D
:1017C0006B67537566665774722F5261696E656EEA
:1017D0006C6976656E00000000000000000068671C
:1017E000746E2F696E74656E7369667900006C752E
:1017F00072636800000000000000000000006D76C9
:10180000206162727570746C7900000000006F6274
:101810006C6976696F757320746F000000006C63EB
:101820006B67436E7363734177726E4F66007774B4
:101830006E206120776869736B6572206F666578CA
:101840007472656D656C79436C6F73652032636F7C
:101850006C6C6F69640000000000000000006D699E
:10186000785770726F704274536F6C5375737265F2
:10187000746963656E740000000000000000646914
:1018800073636C696E65643274616C6B00007072B6
:10189000797E617061727400000000000000666F64
:1018A000726365326765745374684F70656E6573F3
:1018B0006F74657269630000000000000000636ED1
:1018C000666E64326F6E79456E6C67746E64313229
:1018D0003A31303A3436004A756C20313620323095
:1018E0003137002020202020202020202020002F01
:1018F0000054656D703A0048756D69646974793A91
:1019000000526561647920746F2072756E21004EFB
:101910006F772C736C6565702E4279652E003132BD
:101920003A31303A3437004A616E00466562004D04
:10193000617200417072004D6179004A756E004A13
:10194000756C0041756700536570004F6374004EFD
:101950006F760044656300486F75723A20004D69E8
:0A1960006E3A20007365633A200020
:00000001FF
