:100000000C9447000C9464000C9464000C94F6006B
:100010000C9464000C9464000C94FC010C94640037
:100020000C9464000C9464000C9464000C946400C0
:100030000C9464000C9464000C9464000C946400B0
:100040000C9464000C9464000C9464000C946400A0
:100050000C9464000C9464000C9464000C94640090
:100060000C9464000C946400D801DC01D801E00118
:10007000D801E001D801D801E001D801E001D801A0
:10008000A103AA03B303BC03C503CE03D703112402
:100090001FBECFEFD8E0DEBFCDBF14E0A0E0B1E0DF
:1000A000E6E7F5E102C005900D92A237B107D9F756
:1000B00024E0A2E7B4E001C01D92A938B207E1F73D
:1000C0000E94EE020C94B90A0C9400000F931F9347
:1000D000CF93DF9300D000D0CDB7DEB7229A2A9A13
:1000E0002FE986E891E0215080409040E1F700C080
:1000F000000061E0CE0101960E944F072FE986E8DB
:1001000091E0215080409040E1F700C0000061E0A4
:10011000CE0101960E944F0709811A814AE064E8E6
:1001200074E08B819C810E947C0A4AE061E874E063
:10013000C8010E947C0A0F900F900F900F90DF91E2
:10014000CF911F910F9108951092B9008DEF809378
:10015000B800089594EA9093BC00ECEBF0E0908135
:100160009923ECF78093BB0084E88093BC00ECEB10
:10017000F0E080818823ECF79091B900987F81E0CE
:10018000983109F080E008958093BB0084E8809363
:10019000BC00ECEBF0E080818823ECF79091B90093
:1001A000987F81E0983209F480E0089584E8809394
:1001B000BC00ECEBF0E080818823ECF78091BB0081
:1001C0000895CF93DF93C82FD62F0E94AA008D2FBA
:1001D0000E94C40081E08C0F0E94AA000E94D600F9
:1001E00094E99093BC00DF91CF9108951F920F92F4
:1001F0000FB60F9211242F933F934F935F936F93FA
:100200007F938F939F93AF93BF93CF93DF93EF939E
:10021000FF9380917F0491E0980F90937F0480FD7D
:100220002FC08091800481110DC00E9402080E949D
:10023000910283EC99E00197F1F700C0000081E0A2
:10024000809380041C9B16C0CBE6D0E088818F7E13
:10025000888381EE94E00197F1F700C000000E94CE
:10026000300988818061888381EE94E00197F1F7FD
:1002700000C000008FE493EC0197F1F700C000008C
:10028000FF91EF91DF91CF91BF91AF919F918F91AE
:100290007F916F915F914F913F912F910F900FBE82
:1002A0000F901F901895F894E8E6F0E08081816047
:1002B0008083EBE6F0E0808180618083789408950C
:1002C00080917B04885F80937B0420917404285F75
:1002D000209374048C335CF090917C049F5F909326
:1002E0007C046CE30E94CB099E5F90937B042C33CB
:1002F00064F0809175048F5F80937504822F6CE3A6
:100300000E94CB099E5F9093740480917C048C338F
:1003100054F06CE30E94CB0990937C0480917D049F
:100320008F5F80937D04809175048C3361F480919C
:100330007B04845180937B04109275048091760431
:100340008F5F8093760480917D04883104F1109250
:100350007D04809178048F5F809378048091770486
:100360008F5F87301CF48093770411C093E9890272
:10037000912D1124980F9595959587FD9395292F8B
:10038000220F220F220F291B821B809377042091BA
:100390007904822F022E000C990BAA0BBB0BFC01D7
:1003A0003197EC30F10560F4EC5CFF4F0C94ED09F3
:1003B0008FE18093870407C08CE18093870403C09A
:1003C0008EE1809387049091780480918704891747
:1003D00034F481E0809378042F5F20937904809136
:1003E00079048D3044F081E08093790480917A041F
:1003F0008F5F80937A0408951F920F920FB60F9229
:1004000011242F933F934F935F936F937F938F9319
:100410009F93AF93BF93EF93FF930E9460018091EE
:100420007E049DEC899F912D112496959695969525
:10043000990F292F220F220F920F891B0E949704D8
:1004400080917E048F5F80937E04FF91EF91BF9136
:10045000AF919F918F917F916F915F914F913F915C
:100460002F910F900FBE0F901F9018955F988823C3
:100470000CF45F9A5E9886FD5E9A5D9885FD5D9AA4
:100480005C9884FD5C9A5B9A00005B98000008957C
:10049000CF93C82F5A9A5B980E9436028C2F829570
:1004A000807F0E943602CF9108950F931F93CF93C0
:1004B000DF9300D0CDB7DEB78C011A821982E981B3
:1004C000FA81E80FF91F80818823B9F0E981FA8168
:1004D000E00FF11F80810E94480229813A812F5F3D
:1004E0003F4F3A83298384E18A95F1F7E981FA81C4
:1004F000E00FF11F80818111E9CF0F900F90DF9104
:10050000CF911F910F910895CF93C82F5A985B9860
:100510000E9436028C2F8295807F0E943602CF91F6
:1005200008958FE097E20197F1F700C000005A9814
:100530005B9880E30E94360281EE94E00197F1F728
:1005400000C0000080E30E9436028FE295E7019729
:10055000F1F700C0000080E30E94360283EC99E0CE
:100560000197F1F700C0000088E20E94360294E192
:100570009A95F1F788E20E94840284E18A95F1F766
:1005800088E00E94840294E19A95F1F781E00E944C
:10059000840287EE93E00197F1F700C0000086E047
:1005A0000E94840294E19A95F1F78CE00E94840203
:1005B00084E18A95F1F70895579A569A559A549A74
:1005C000209A289A269A2E98279A2F98229A2A9823
:1005D0002498539A529A239A2B9808950E94DC02E9
:1005E0000E9453010E94A4000E94170683B7817FD6
:1005F000846083BF83B7816083BF889583B78E7F14
:1006000083BFF8CF28980895289A0895CF93DF9351
:10061000CDB7DEB76C970FB6F894DEBF0FBECDBF77
:1006200080E80E94840284E18A95F1F780917D043C
:100630004AE0BE01695F7F4F082E000C990B0E94B3
:100640007C0A80917C044AE0BE016C5F7F4F082EDB
:10065000000C990B0E947C0A80917B044AE0BE0149
:100660006F5F7F4F082E000C990B0E947C0ACE0111
:1006700007960E94550283E294E00E945502CE0143
:1006800004960E94550283E294E00E945502CE0136
:1006900001960E94550280E094E00E94550284E198
:1006A0008A95F1F780EC0E94840284E18A95F1F743
:1006B00080917A044AE0BE01665F7F4F082E000CED
:1006C000990B0E947C0A809179044AE0BE01635F25
:1006D0007F4F082E000C990B0E947C0A80917804B1
:1006E0004AE0BE01605F7F4F082E000C990B0E940C
:1006F0007C0ACE010A960E9455028CE094E00E948A
:100700005502CE010D960E9455028CE094E00E94A5
:100710005502CE0140960E9455028AE094E00E9464
:100720005502E09177048E2FEE0F990BAA0BBB0BAD
:100730008730910508F043C0FC01E05CFF4F0C944A
:10074000ED0983E595E7AEE6B0E08B8B9C8BAD8B36
:10075000BE8B35C08DE49FE6AEE6B0E08B8B9C8B04
:10076000AD8BBE8B2CC084E595E7A5E6B0E08B8B06
:100770009C8BAD8BBE8B23C087E595E6A4E6B0E0ED
:100780008B8B9C8BAD8BBE8B1AC084E598E6A5E75E
:10079000B0E08B8B9C8BAD8BBE8B11C086E492E757
:1007A000A9E6B0E08B8B9C8BAD8BBE8B08C083E53C
:1007B00091E6A4E7B0E08B8B9C8BAD8BBE8BCE011A
:1007C00043960E94550286E094E00E94550284E11F
:1007D0008A95F1F76C960FB6F894DEBF0FBECDBFC9
:1007E000DF91CF910895CF93DF93CDB7DEB72997EF
:1007F0000FB6F894DEBF0FBECDBF80EC0E9484021E
:1008000084E18A95F1F7809176044AE0BE01695F40
:100810007F4F082E000C990B0E947C0A8091750472
:100820004AE0BE016C5F7F4F082E000C990B0E94BE
:100830007C0A809174044AE0BE016F5F7F4F082EEE
:10084000000C990B0E947C0ACE0107960E9455026B
:1008500083E294E00E945502CE0104960E94550264
:1008600083E294E00E945502CE0101960E94550257
:1008700084E094E00E94550284E18A95F1F729967C
:100880000FB6F894DEBF0FBECDBFDF91CF910895B4
:1008900080E80E94840224E12A95F1F78FE391E039
:1008A0000E94550280EC0E94840284E18A95F1F74F
:1008B00080E391E00E9455029FE32DE083E0915098
:1008C00020408040E1F700C0000080EC0E948402DC
:1008D00094E19A95F1F781E291E00E9455022FE7A9
:1008E0008AE196E0215080409040E1F700C000008E
:1008F000089580E80E94840224E12A95F1F780E1BE
:1009000091E00E94550280EC0E94840284E18A9565
:10091000F1F780E091E00E9455029FEB27E289E029
:10092000915020408040E1F700C000000895EF9210
:10093000FF920F931F93CF93DF93E82E80E80E94DE
:10094000840224E12A95F1F790917C0493781CF4B9
:1009500091509C6F9F5F9923ECF092301CF0943083
:100960006CF018C030E2E39EC0011124EC01C257C4
:10097000DD4F9C0122563D4F790110C030E2E39ECD
:10098000C0011124EC01C25BDE4F9C01225A3E4F94
:10099000790104C0E12CF12CC0E0D0E0CE010E942E
:1009A0005502FE0101900020E9F73197EC1BFD0B89
:1009B00000E110E00E1B11091016110654F4C0E0FE
:1009C00080E20E944802CF5F2C2F30E020173107D1
:1009D000BCF380EC0E94840234E13A95F1F7C70140
:1009E0000E945502F70101900020E9F73197EE19B6
:1009F000FF0900E110E00E1B11091016110654F456
:100A0000C0E080E20E944802CF5F8C2F90E0801708
:100A10009107BCF3DF91CF911F910F91FF90EF9061
:100A20000895EF92FF920F931F93CF93DF93EC0102
:100A30007B018A0162E080ED0E94E100888361E031
:100A400080ED0E94E100F701808360E080ED0E946C
:100A5000E100F8018083988196FF03C09F7198831D
:100A600002C09F739883DF91CF911F910F91FF90E8
:100A7000EF900895EF92FF920F931F93CF93DF9320
:100A80007C018B01EA0165E080ED0E94E100F70145
:100A9000808364E080ED0E94E100F801808366E0DD
:100AA00080ED0E94E1008883DF91CF911F910F912B
:100AB000FF90EF900895CF93DF93EC0163E080ED1A
:100AC0000E94E1008883DF91CF910895CF93C82FD2
:100AD00082958F70805D0E9448028C2F8F70805DA0
:100AE0000E944802CF910895CF93DF9300D000D0A9
:100AF000CDB7DEB7AE014D5F5F4FBE016E5F7F4F7A
:100B0000CE0101960E943A0589810E9466058FE216
:100B10000E9448028A810E9466058FE20E94480274
:100B20008B810E94660580E20E944802CE010496F5
:100B30000E945B058C810E9466050F900F900F90BC
:100B40000F90DF91CF910895CF93DF9300D01F9244
:100B5000CDB7DEB7AE014D5F5F4FBE016E5F7F4F19
:100B6000CE0101960E94110589810E9466058AE3E3
:100B70000E9448028A810E9466058AE30E94480218
:100B80008B810E9466050F900F900F90DF91CF919F
:100B90000895CF93DF93882341F0D82FC0E080E2FF
:100BA0000E944802CF5FCD13FACFDF91CF91089515
:100BB00080E80E9484020E94A40588E00E94C90582
:100BC00080EC0E9484020E94740588E00E94C9059E
:100BD00008950E94660080E80E9484020E94A40595
:100BE00081E00E94C90584E894E00E94550283E4F4
:100BF0000E94480280EC0E9484020E94740582E0F8
:100C00000E94C90581E894E00E94550285E20E9495
:100C10004802089580917804082E000C990B4197A2
:100C200067E070E00E94D9098093770408951F93CC
:100C3000CF93DF93CDB7DEB7E4970FB6F894DEBF5E
:100C40000FBECDBF63E274E085E294E00E94400AEB
:100C5000BC01FC0180818823E9F020E011E0120F43
:100C600030E0C901880F991F820F931F21E030E007
:100C70002C0F3D1F820F931F0E944E0A63E274E007
:100C800080E090E00E94400ABC01212FFC0180819D
:100C90008111E4CFCE0101960E94220A80937D0447
:100CA000CE0104960E94220A80937C04CE0107960E
:100CB0000E94220A815F80937B046AE074E084EFE3
:100CC00093E00E94400ABC01FC018081882319F155
:100CD00020E011E0120F30E0C901880F991F220FA8
:100CE000331F220F331F220F331F820F931F2DE05C
:100CF00030E02C0F3D1F820F931F0E944E0A6AE0C6
:100D000074E080E090E00E94400ABC01212FFC01C9
:100D100080818111DECF6EE274E0CE010D960E94DB
:100D2000450A892B21F481E08093790483C062E332
:100D300074E0CE010D960E94450A892B21F482E0D1
:100D40008093790477C066E374E0CE010D960E942B
:100D5000450A892B21F483E0809379046BC06AE310
:100D600074E0CE010D960E94450A892B21F484E09F
:100D7000809379045FC06EE374E0CE010D960E940B
:100D8000450A892B21F485E08093790453C062E4FD
:100D900074E0CE010D960E94450A892B21F486E06D
:100DA0008093790447C066E474E0CE010D960E94FA
:100DB000450A892B21F487E0809379043BC06AE4DB
:100DC00074E0CE010D960E94450A892B21F488E03B
:100DD000809379042FC06EE474E0CE010D960E94DA
:100DE000450A892B21F489E08093790423C062E5C8
:100DF00074E0CE010D960E94450A892B21F48AE009
:100E00008093790417C066E574E0CE010D960E94C8
:100E1000450A892B21F48BE0809379040BC06AE5A5
:100E200074E0CE010D960E94450A892B19F48CE0DE
:100E300080937904CE0147960E94220A8093780419
:100E4000CE0181960E94220AAC019C01369527951D
:100E50003695279536952795A5ECB0E20E94F309C3
:100E6000929582958F7089279F70892768EE73E02D
:100E7000869F9001879F300D969F300D1124421B55
:100E8000530B40937A040E940A06E4960FB6F89436
:100E9000DEBF0FBECDBFDF91CF911F910895EF92BE
:100EA000FF920F931F93CF93DF9300D000D01F9238
:100EB000CDB7DEB77C011D821C821B821A8219828B
:100EC00084B141E050E0062E02C0440F551F0A9441
:100ED000E2F7842B84B995B1242F2095922395B9FC
:100EE00083E991E10197F1F700C0000095B1942BDF
:100EF00095B99DE09A95F1F7000084B1822384B9F9
:100F000080E003C0815009F45AC023B130E02423AB
:100F10003523232BB9F35DC0215011F452C02FEFBC
:100F200083B190E084239523892BB1F788E210E008
:100F3000A7E003C0915031F446C0B0E061E070E03A
:100F400007E09B2F23B130E024233523232B91F39B
:100F50009B2F06C0E3E0EA95F1F700009F5FA9F13F
:100F600023B130E024233523232BA1F7923080F0E6
:100F7000E1E0F0E0EC0FFD1FE10FF11D90819B011E
:100F80000A2E02C0220F331F0A94E2F7292B208376
:100F9000A11103C01F5FA02F01C0A150815089F68D
:100FA00049812B81922F940F3D81391310C050E05D
:100FB000F7015183408330E03383228317C08EEFE3
:100FC00015C08EEF13C08EEF11C08EEF0FC08FEFE4
:100FD0000DC083B190E002C0959587956A95E2F7C0
:100FE00080FD9DCF88E210E0A7E0A7CF0F900F9083
:100FF0000F900F900F90DF91CF911F910F91FF9065
:10100000EF900895579A569A559A549A209A269A8C
:101010002E9A83EC99E00197F1F700C00000279A1F
:101020002F9A83EC99E00197F1F700C00000229815
:101030002A9A539A529A5A980895579856985598BA
:10104000549820982E9826982F9827982998219878
:101050002998229853985A98529808950F931F935D
:10106000CF93DF9300D01F92CDB7DEB700E010E042
:1010700080E80E94840284E18A95F1F78EE594E08D
:101080000E94550280917D044AE0BE016F5F7F4F50
:10109000082E000C990B0E947C0ACE0101960E943A
:1010A00055028AE094E00E94550283B1E7EAF1E636
:1010B0003197F1F700C0000084FD0CC080917D04E1
:1010C0008F5F883124F480937D04012F03C0109238
:1010D0007D04012F1F5F812F801B893038F481E14F
:1010E0009AE70197F1F700C00000C2CFE1E1FAE70B
:1010F0003197F1F700C000000F900F900F90DF9133
:10110000CF911F910F9108950F931F93CF93DF936A
:1011100000D01F92CDB7DEB700E010E080E80E945B
:10112000840284E18A95F1F785E694E00E945502F5
:1011300080917C044AE0BE016F5F7F4F082E000C57
:10114000990B0E947C0ACE0101960E9455028AE00A
:1011500094E00E94550283B1E7EAF1E63197F1F796
:1011600000C0000084FD0CC080917C048F5F8C3334
:1011700024F480937C04012F03C010927C04012F7F
:101180001F5F812F801B893038F481E19AE7019736
:10119000F1F700C00000C2CFE1E1FAE73197F1F7C3
:1011A00000C000000F900F900F90DF91CF911F9122
:1011B0000F9108950F931F93CF93DF9300D01F9249
:1011C000CDB7DEB700E010E080E80E94840284E141
:1011D0008A95F1F78BE694E00E94550280917B049A
:1011E0004AE0BE016F5F7F4F082E000C990B0E94F2
:1011F0007C0ACE0101960E9455028AE094E00E948A
:10120000550283B1E7EAF1E63197F1F700C000003B
:1012100084FD0CC080917B048F5F8C3324F4809319
:101220007B04012F03C010927B04012F1F5F812FCD
:10123000801B893038F481E19AE70197F1F700C00B
:101240000000C2CFE1E1FAE73197F1F700C00000FA
:101250000F900F900F90DF91CF911F910F910895F4
:1012600080E030E020E061E040E052E08F5F982FC6
:10127000931B933018F021118BC075C0953008F482
:101280007CC0222309F46CC078C01C9910C0942F34
:1012900005C0952F03C0942F01C0962FE3E2F4EF11
:1012A0003197F1F700C000002F5F382F01C0942F55
:1012B000E1E1FAE73197F1F700C000009923B1F2BC
:1012C000923011F42091880420938804233091F007
:1012D00028F4213049F0223051F02BC0253019F18B
:1012E000C8F0263019F125C00E94E90524C00E94EB
:1012F000D80521C00E9402080E940203FFE926E8E7
:1013000081E0F15020408040E1F700C000000E94E1
:10131000040311C00E9484080E942E080E94DA086B
:101320000E94060308C00E94F30305C00E944804FF
:1013300002C00E9479049FE3E2E4FFE09150E040A4
:10134000F040E1F700C000000E941D0810928004E8
:10135000089581E19AE70197F1F700C00000B2CF4C
:101360001C99F7CF96CF9530D8F78FCFE1E1FAE708
:101370003197F1F700C0000079CF1C99F7CF8BCFE0
:1013800081E19AE70197F1F700C0000091E098CF62
:101390001C99F6CF82CF87FB082E062687FD819504
:1013A00067FD61950E94020A0EF4919507FC8195F4
:1013B000089597FB072E16F4009407D077FD09D007
:1013C0000E940E0A07FC05D03EF4909581959F4F30
:1013D0000895709561957F4F0895EE0FFF1F05905A
:1013E000F491E02D0994A29FB001B39FC001A39F87
:1013F000700D811D1124911DB29F700D811D11244E
:10140000911D0895991B79E004C0991F961708F063
:10141000961B881F7A95C9F780950895AA1BBB1B58
:1014200051E107C0AA1FBB1FA617B70710F0A61BE4
:10143000B70B881F991F5A95A9F780959095BC0105
:10144000CD010895FC0188279927E8942191203245
:10145000E9F3293010F02E30C8F32B3241F02D3251
:1014600039F4689404C00E94870A820F911D21916B
:1014700020532A30C0F31EF4909581959F4F089514
:1014800042E754E00E94550A0895FB01DC018D916A
:10149000019080190110D9F3990B0895FB01DC012B
:1014A00001900D920020E1F70895FA01A191B08119
:1014B000009719F41097E1F0CD01DC01CD010D90FA
:1014C000002011F4C00113C0FB012191222319F067
:1014D0002015D9F7F3CFFB012191201519F41E92A5
:1014E000119606C02223C1F70D900020A1F7D0016C
:1014F000FA01A193B0830895BB274A3031F49923B0
:1015000022F4BDE2909581959F4F0C94900A7AE069
:10151000979F902D879F802D910D11240895BB27B3
:10152000FB015527AA27880F991FAA1FA41710F09F
:10153000A41B83955051B9F7A05DAA3308F0A95DAB
:10154000A193009779F7B111B1931192CB010C944B
:10155000A90ADC01FC01672F71917723E1F732972B
:1015600004C07C916D9370836291AE17BF07C8F37E
:061570000895F894FFCF7E
:1015760032434B33544834424C35414A3641540089
:10158600313A526479204F72205072657653656CF9
:10159600004A756C2031312C203230313720200042
:1015A6004C43442D41546D656761333238700049B0
:1015B6006E736F6F204B696D202020202000736EA4
:1015C600616700000000000000000000000068697C
:1015D6006464656E4F62737461636C6500006D6967
:1015E6007373696F6E2D61676E6F73746963676578
:1015F6006E4170706C696361626C650000006465C1
:1016060065702D7374656443756C74757265667266
:1016160061637475726564526C746E736870747508
:101626006D756C74000000000000000000006C6F17
:101636007564436E6673644E736542794D73736F5A
:10164600626572696E670000000000000000746544
:101656006E64696E67326D6B536F626572006D6999
:101666007363617272616765000000000000627258
:101676007468426279416C7264446440576D636C6D
:101686006173732D6163746E4C77537400006C61E3
:101696007753756974546F67657468657200626C18
:1016A6006973746572000000000000000000666C3B
:1016B600756964506F636B6574000000000074699F
:1016C60074746572000000000000000000006C6188
:1016D60075676851756965744E7276736C796C6955
:1016E6006E6520636F6F6B000000000000006120D4
:1016F600636F6F6B20696E4B69746368656E737593
:101706006363756D62000000000000000000666102
:10171600696C20746F20726573697374000061725E
:1017260069640000000000000000000000006C6317
:101736006B67537566665774722F5261696E656E74
:101746006C6976656E0000000000000000006867A6
:10175600746E2F696E74656E7369667900006C75B8
:1017660072636800000000000000000000006D7653
:10177600206162727570746C7900000000006F62FF
:101786006C6976696F757320746F000000006C6376
:101796006B67436E7363734177726E4F660077743F
:1017A6006E206120776869736B6572206F66657855
:1017B6007472656D656C79436C6F73652032636F07
:1017C6006C6C6F69640000000000000000006D6929
:1017D600785770726F704274536F6C53757372657D
:1017E600746963656E74000000000000000064699F
:1017F60073636C696E65643274616C6B0000707241
:10180600797E617061727400000000000000666FEE
:10181600726365326765745374684F70656E65737D
:101826006F74657269630000000000000000636E5B
:10183600666E64326F6E79456E6C67746E6452655F
:1018460061647920746F2072756E21004E6F772C5B
:10185600736C6565702E4279652E0031313A3430ED
:101866003A3133004A756C20313520323031370039
:101876002020202020202020202020002F0054651A
:101886006D703A0048756D69646974793A00466FFF
:10189600756E643A0031313A32383A3038004A616E
:1018A6006E00466562004D617200417072004D61C6
:1018B60079004A756E004A756C004175670053657C
:1018C60070004F6374004E6F760044656300486F86
:1018D60075723A20004D696E3A20007365633A20AE
:0218E600000000
:00000001FF
