S01C00004C43445F5254435F4453313330375F44485431312E737265638B
S11300000C9447000C9464000C9464000C94F70264
S11300100C9464000C9464000C94FD030C94640030
S11300200C9464000C9464000C9464000C946400BC
S11300300C9464000C9464000C9464000C946400AC
S11300400C9464000C9464000C9464000C9464009C
S11300500C9464000C9464000C9464000C9464008C
S11300600C9464000C946400D903DD03D903E10308
S1130070D903E103D903D903E103D903E103D90384
S11300809905A205AB05B405BD05C605CF05112428
S11300901FBECFEFD8E0DEBFCDBF14E0A0E0B1E0DB
S11300A0E0E0F6E102C005900D92A236B107D9F75F
S11300B024E0A2E6B4E001C01D92A937B207E1F73B
S11300C00E9433070C94FE0A0C940000579A569A27
S11300D0559A549A539A5B98529A5A98209A289A05
S11300E0269A2E98089524980895279A2F9808956B
S11300F0229A2A980895239A2B9808950E946600BC
S11301000E9473000E9475000E9478000E947B0088
S113011008950F931F93CF93DF9300D000D0CDB7F2
S1130120DEB7229A2A9A2FE986E891E0215080408E
S11301309040E1F700C0000061E0CE0101960E940A
S1130140C2082FE986E891E0215080409040E1F711
S113015000C0000061E0CE0101960E94C20809813E
S11301601A814AE064E774E08B819C810E94C10A91
S11301704AE061E774E0C8010E94C10A0F900F9041
S11301800F900F90DF91CF911F910F910895EF92EF
S1130190FF920F931F93CF93DF93EC017B018A01AE
S11301A062E080ED0E94E202888361E080ED0E94BB
S11301B0E202F701808360E080ED0E94E202F80130
S11301C08083988196FF03C09F71988302C09F73B8
S11301D09883DF91CF911F910F91FF90EF90089535
S11301E0EF92FF920F931F93CF93DF937C018B01C8
S11301F0EA0165E080ED0E94E202F701808364E099
S113020080ED0E94E202F801808366E080ED0E94A6
S1130210E2028883DF91CF911F910F91FF90EF90BD
S11302200895CF93DF93EC0163E080ED0E94E20236
S11302308883DF91CF9108950F931F93CF93DF931A
S113024000D01F92CDB7DEB700E010E080E80E9436
S1130250850484E18A95F1F78EEC93E00E945604BC
S113026080916D044AE0BE016F5F7F4F082E000C41
S1130270990B0E94C10ACE0101960E94560480E0A7
S113028094E00E94560483B1E7EAF1E63197F1F76E
S113029000C0000084FD0CC080916D048F5F883124
S11302A024F480936D04012F03C010926D04012F78
S11302B01F5F812F801B893038F481E19AE7019711
S11302C0F1F700C00000C2CFE1E1FAE73197F1F79E
S11302D000C000000F900F900F90DF91CF911F91FD
S11302E00F9108950F931F93CF93DF9300D01F9224
S11302F0CDB7DEB700E010E080E80E94850484E119
S11303008A95F1F785ED93E00E94560480916C0480
S11303104AE0BE016F5F7F4F082E000C990B0E94CC
S1130320C10ACE0101960E94560480E094E00E9426
S1130330560483B1E7EAF1E63197F1F700C0000013
S113034084FD0CC080916C048F5F8C3324F4809303
S11303506C04012F03C010926C04012F1F5F812FC6
S1130360801B893038F481E19AE70197F1F700C0E6
S11303700000C2CFE1E1FAE73197F1F700C00000D5
S11303800F900F900F90DF91CF911F910F910895CF
S11303900F931F93CF93DF9300D01F92CDB7DEB797
S11303A000E010E080E80E94850484E18A95F1F77A
S11303B08BED93E00E94560480916B044AE0BE01E9
S11303C06F5F7F4F082E000C990B0E94C10ACE016B
S11303D001960E94560480E094E00E94560483B182
S11303E0E7EAF1E63197F1F700C0000084FD0CC0A4
S11303F080916B048F5F8C3324F480936B04012F02
S113040003C010926B04012F1F5F812F801B893062
S113041038F481E19AE70197F1F700C00000C2CFF8
S1130420E1E1FAE73197F1F700C000000F900F9077
S11304300F90DF91CF911F910F910895CF93DF9388
S113044000D000D0CDB7DEB7AE014D5F5F4FBE0127
S11304506E5F7F4FCE0101960E94F00089810E9459
S1130460DD048FE20E9449048A810E94DD048FE248
S11304700E9449048B810E94DD0480E20E944904A9
S1130480CE0104960E9411018C810E94DD040F901C
S11304900F900F900F90DF91CF910895CF93DF933A
S11304A000D01F92CDB7DEB7AE014D5F5F4FBE01E6
S11304B06E5F7F4FCE0101960E94C70089810E9422
S11304C0DD048AE30E9449048A810E94DD048AE3F0
S11304D00E9449048B810E94DD040F900F900F90BD
S11304E0DF91CF91089580E80E9485040E944E0216
S11304F088E00E94ED0480EC0E9485040E941E02A4
S113050088E00E94ED0408950E94890080E80E941A
S113051085040E944E0285E00E94ED0484E794E085
S11305200E94560483E40E94490480EC0E948504DE
S11305300E941E0282E00E94ED0481E794E00E9482
S1130540560485E20E94490408951092B9008DEF83
S11305508093B800089594EA9093BC00ECEBF0E02B
S113056090819923ECF78093BB0084E88093BC00CE
S1130570ECEBF0E080818823ECF79091B900987F50
S113058081E0983109F080E008958093BB0084E80D
S11305908093BC00ECEBF0E080818823ECF7909131
S11305A0B900987F81E0983209F480E0089584E8E6
S11305B08093BC00ECEBF0E080818823ECF7809121
S11305C0BB000895CF93DF93C82FD62F0E94AB02B0
S11305D08D2F0E94C50281E08C0F0E94AB020E9405
S11305E0D70294E99093BC00DF91CF9108951F92B4
S11305F00F920FB60F9211242F933F934F935F9353
S11306006F937F938F939F93AF93BF93CF93DF9316
S1130610EF93FF9380916F0491E0980F90936F0490
S113062080FD2FC08091700481110DC00E94490784
S11306300E94920483EC99E00197F1F700C0000056
S113064081E0809370041C9B16C0CBE6D0E08881C7
S11306508F7E888381EE94E00197F1F700C000005B
S11306600E94750988818061888381EE94E00197F6
S1130670F1F700C000008FE493EC0197F1F700C09C
S11306800000FF91EF91DF91CF91BF91AF919F91C6
S11306908F917F916F915F914F913F912F910F9027
S11306A00FBE0F901F901895F894E8E6F0E0808153
S11306B081608083EBE6F0E08081806180837894C0
S11306C0089580916B04885F80936B042091640487
S11306D0285F209364048C335CF090916C049F5FDA
S11306E090936C046CE30E94100A9E5F90936B04D9
S11306F02C3364F0809165048F5F80936504822FAE
S11307006CE30E94100A9E5F9093640480916C04D1
S11307108C3354F06CE30E94100A90936C04809123
S11307206D048F5F80936D04809165048C3361F454
S113073080916B04845180936B04109265048091C2
S113074066048F5F8093660480916D04883104F1A0
S113075010926D04809168048F5F80936804809187
S113076067048F5F87301CF48093670411C093E99A
S11307708902912D1124980F9595959587FD939550
S1130780292F220F220F220F291B821B809367041B
S113079020916904822F022E000C990BAA0BBB0B2B
S11307A0FC013197EC30F10560F4EC5CFF4F0C94E4
S11307B0320A8FE18093770407C08CE18093770439
S11307C003C08EE18093770490916804809177044C
S11307D0891734F481E0809368042F5F20936904BF
S11307E0809169048D3044F081E0809369048091A4
S11307F06A048F5F80936A0408951F920F920FB664
S11308000F9211242F933F934F935F936F937F9392
S11308108F939F93AF93BF93EF93FF930E946103D2
S113082080916E049DEC899F912D11249695969547
S11308309695990F292F220F220F920F891B0E9440
S11308408F0680916E048F5F80936E04FF91EF9109
S1130850BF91AF919F918F917F916F915F914F91D4
S11308603F912F910F900FBE0F901F9018955F9896
S113087088230CF45F9A5E9886FD5E9A5D9885FDE8
S11308805D9A5C9884FD5C9A5B9A00005B9800001A
S11308900895CF93C82F5A9A5B980E9437048C2FDF
S11308A08295807F0E943704CF9108950F931F9300
S11308B0CF93DF9300D0CDB7DEB78C011A821982B3
S11308C0E981FA81E80FF91F80818823B9F0E98171
S11308D0FA81E00FF11F80810E94490429813A8145
S11308E02F5F3F4F3A83298384E18A95F1F7E981A9
S11308F0FA81E00FF11F80818111E9CF0F900F90F1
S1130900DF91CF911F910F910895CF93C82F5A98DB
S11309105B980E9437048C2F8295807F0E94370455
S1130920CF9108958FE097E20197F1F700C000009E
S11309305A985B9880E30E94370481EE94E0019713
S1130940F1F700C0000080E30E9437048FE295E7CE
S11309500197F1F700C0000080E30E94370483ECA4
S113096099E00197F1F700C0000088E20E94370483
S113097094E19A95F1F788E20E94850484E18A95CE
S1130980F1F788E00E94850494E19A95F1F781E0FB
S11309900E94850487EE93E00197F1F700C0000000
S11309A086E00E94850494E19A95F1F78CE00E9418
S11309B0850484E18A95F1F70895CF93C82F829531
S11309C08F70805D0E9449048C2F8F70805D0E941F
S11309D04904CF91089528980895CF93DF938823ED
S11309E041F0D82FC0E080E20E944904CF5FCD13CC
S11309F0FACFDF91CF910895289A0895CF93DF938A
S1130A00CDB7DEB76C970FB6F894DEBF0FBECDBF7F
S1130A1080E80E94850484E18A95F1F780916D0451
S1130A204AE0BE01695F7F4F082E000C990B0E94BB
S1130A30C10A80916C044AE0BE016C5F7F4F082EAE
S1130A40000C990B0E94C10A80916B044AE0BE011C
S1130A506F5F7F4F082E000C990B0E94C10ACE01D4
S1130A6007960E94560488E094E00E945604CE0142
S1130A7004960E94560488E094E00E945604CE0135
S1130A8001960E94560486EF93E00E94560484E186
S1130A908A95F1F780EC0E94850484E18A95F1F748
S1130AA080916A044AE0BE01665F7F4F082E000C05
S1130AB0990B0E94C10A809169044AE0BE01635FF8
S1130AC07F4F082E000C990B0E94C10A8091680484
S1130AD04AE0BE01605F7F4F082E000C990B0E9414
S1130AE0C10ACE010A960E94560482E094E00E9454
S1130AF05604CE010D960E94560482E094E00E94B2
S1130B005604CE0140960E94560480E094E00E9470
S1130B105604E09167048E2FEE0F990BAA0BBB0BC2
S1130B208730910508F043C0FC01E05CFF4F0C9452
S1130B30320A83E595E7AEE6B0E08B8B9C8BAD8BF8
S1130B40BE8B35C08DE49FE6AEE6B0E08B8B9C8B0C
S1130B50AD8BBE8B2CC084E595E7A5E6B0E08B8B0E
S1130B609C8BAD8BBE8B23C087E595E6A4E6B0E0F5
S1130B708B8B9C8BAD8BBE8B1AC084E598E6A5E766
S1130B80B0E08B8B9C8BAD8BBE8B11C086E492E75F
S1130B90A9E6B0E08B8B9C8BAD8BBE8B08C083E544
S1130BA091E6A4E7B0E08B8B9C8BAD8BBE8BCE0122
S1130BB043960E9456048CEF93E00E94560484E10D
S1130BC08A95F1F76C960FB6F894DEBF0FBECDBFD1
S1130BD0DF91CF910895CF93DF93CDB7DEB72997F7
S1130BE00FB6F894DEBF0FBECDBF80EC0E94850423
S1130BF084E18A95F1F7809166044AE0BE01695F59
S1130C007F4F082E000C990B0E94C10A8091650445
S1130C104AE0BE016C5F7F4F082E000C990B0E94C6
S1130C20C10A809164044AE0BE016F5F7F4F082EC1
S1130C30000C990B0E94C10ACE0107960E9456042B
S1130C4088E094E00E945604CE0104960E94560463
S1130C5088E094E00E945604CE0101960E94560456
S1130C608AEF93E00E94560484E18A95F1F729966D
S1130C700FB6F894DEBF0FBECDBFDF91CF910895BC
S1130C8080E80E94850424E12A95F1F78FE391E03E
S1130C900E94560480EC0E94850484E18A95F1F751
S1130CA080E391E00E9456049FE32DE083E091509D
S1130CB020408040E1F700C0000080EC0E948504E1
S1130CC094E19A95F1F781E291E00E9456042FE7AE
S1130CD08AE196E0215080409040E1F700C0000096
S1130CE0089580E80E94850424E12A95F1F780E1C3
S1130CF091E00E94560480EC0E94850484E18A9568
S1130D00F1F780E091E00E9456049FEB27E289E02E
S1130D10915020408040E1F700C000000895EF9218
S1130D20FF920F931F93CF93DF93E82E80E80E94E6
S1130D30850424E12A95F1F790916C0493781CF4CE
S1130D4091509C6F9F5F9923ECF092301CF094308B
S1130D506CF018C030E2E39EC0011124EC01C257CC
S1130D60DD4F9C0122563D4F790110C030E2E39ED5
S1130D70C0011124EC01C25BDE4F9C01225A3E4F9C
S1130D80790104C0E12CF12CC0E0D0E0CE010E9436
S1130D905604FE0101900020E9F73197EC1BFD0B8E
S1130DA000E110E00E1B11091016110654F4C0E006
S1130DB080E20E944904CF5F2C2F30E020173107D6
S1130DC0BCF380EC0E94850434E13A95F1F7C70145
S1130DD00E945604F70101900020E9F73197EE19BB
S1130DE0FF0900E110E00E1B11091016110654F45E
S1130DF0C0E080E20E944904CF5F8C2F90E080170E
S1130E009107BCF3DF91CF911F910F91FF90EF9069
S1130E1008950E9449070E94920489EF90E0019787
S1130E20F1F700C0000080E80E94850494E19A95DF
S1130E30F1F784E194E00E94560480EC0E9485045A
S1130E4024E12A95F1F782E294E00E9456048FEBA4
S1130E5097E229E0815090402040E1F700C0000073
S1130E600E94640708950E947E000E9454030E9419
S1130E70A5020E948A070E94090783B7817F8460C4
S1130E8083BF83B7816083BF889583B78E7F83BF19
S1130E90F8CF579A569A559A549A209A269A2E9A87
S1130EA083EC99E00197F1F700C00000279A2F9A8C
S1130EB083EC99E00197F1F700C0000022982A9A88
S1130EC0539A529A5A9808955F985E985D985C98E0
S1130ED0579856985598549881E085B920982F983A
S1130EE027982998219829982A9822985B985398AA
S1130EF05A9852982E982698089580916804082E3E
S1130F00000C990B419767E070E00E941E0A8093E1
S1130F10670408951F93CF93DF93CDB7DEB7E497AB
S1130F200FB6F894DEBF0FBECDBF68E074E081EE6B
S1130F3093E00E94850ABC01FC0180818823E9F0CA
S1130F4020E011E0120F30E0C901880F991F820FD1
S1130F50931F21E030E02C0F3D1F820F931F0E944E
S1130F60930A68E074E080E090E00E94850ABC0186
S1130F70212FFC0180818111E4CFCE0101960E94D2
S1130F80670A80936D04CE0104960E94670A8093D9
S1130F906C04CE0107960E94670A815F80936B04FC
S1130FA060E074E08AEE93E00E94850ABC01FC01D3
S1130FB08081882319F120E011E0120F30E0C9018B
S1130FC0880F991F220F331F220F331F220F331F45
S1130FD0820F931F2DE030E02C0F3D1F820F931FD3
S1130FE00E94930A60E074E080E090E00E94850A29
S1130FF0BC01212FFC0180818111DECF61E374E00B
S1131000CE010D960E948A0A892B21F481E08093F7
S1131010690483C065E374E0CE010D960E948A0AD8
S1131020892B21F482E08093690477C069E374E03A
S1131030CE010D960E948A0A892B21F483E08093C5
S113104069046BC06DE374E0CE010D960E948A0AB8
S1131050892B21F484E0809369045FC061E474E027
S1131060CE010D960E948A0A892B21F485E0809393
S1131070690453C065E474E0CE010D960E948A0AA7
S1131080892B21F486E08093690447C069E474E005
S1131090CE010D960E948A0A892B21F487E0809361
S11310A069043BC06DE474E0CE010D960E948A0A87
S11310B0892B21F488E0809369042FC061E574E0F2
S11310C0CE010D960E948A0A892B21F489E080932F
S11310D0690423C065E574E0CE010D960E948A0A76
S11310E0892B21F48AE08093690417C069E574E0D0
S11310F0CE010D960E948A0A892B21F48BE08093FD
S113110069040BC06DE574E0CE010D960E948A0A55
S1131110892B19F48CE080936904CE0147960E94D0
S1131120670A80936804CE0181960E94670AAC0125
S11311309C01369527953695279536952795A5ECE8
S1131140B0E20E94380A929582958F7089279F7029
S1131150892768EE73E0869F9001879F300D969FE4
S1131160300D1124421B530B40936A040E947D07E7
S1131170E4960FB6F894DEBF0FBECDBFDF91CF91DA
S11311801F910895EF92FF920F931F93CF93DF93D4
S113119000D000D01F92CDB7DEB77C011D821C8227
S11311A01B821A82198284B141E050E0062E02C0EB
S11311B0440F551F0A94E2F7842B84B995B1242F68
S11311C02095922395B983E991E10197F1F700C045
S11311D0000095B1942B95B99DE09A95F1F7000024
S11311E084B1822384B980E003C0815009F45AC0D9
S11311F023B130E024233523232BB9F35DC02150E0
S113120011F452C02FEF83B190E084239523892BEE
S1131210B1F788E210E0A7E003C0915031F446C072
S1131220B0E061E070E007E09B2F23B130E02423BD
S11312303523232B91F39B2F06C0E3E0EA95F1F7C6
S113124000009F5FA9F123B130E024233523232B31
S1131250A1F7923080F0E1E0F0E0EC0FFD1FE10F28
S1131260F11D90819B010A2E02C0220F331F0A94A4
S1131270E2F7292B2083A11103C01F5FA02F01C017
S1131280A150815089F649812B81922F940F3D8181
S1131290391310C050E0F7015183408330E03383A9
S11312A0228317C08EEF15C08EEF13C08EEF11C0CE
S11312B08EEF0FC08FEF0DC083B190E002C0959503
S11312C087956A95E2F780FD9DCF88E210E0A7E05C
S11312D0A7CF0F900F900F900F900F90DF91CF91A9
S11312E01F910F91FF90EF90089580E030E020E08F
S11312F061E040E052E08F5F982F931B933018F029
S113130021118BC075C0953008F47CC0222309F4E8
S11313106CC078C01C9910C0942F05C0952F03C0D1
S1131320942F01C0962FE3E2F4EF3197F1F700C058
S113133000002F5F382F01C0942FE1E1FAE73197C5
S1131340F1F700C000009923B1F2923011F420911A
S1131350780420937804233091F028F4213049F064
S1131360223051F02BC0253019F1C8F0263019F184
S113137025C00E94840224C00E94730221C00E94DE
S113138049070E94EB04FFE926E881E0F150204080
S11313908040E1F700C000000E94FC0411C00E94DC
S11313A072010E941C010E94C8010E94FE0408C030
S11313B00E94EB0505C00E94400602C00E9471060F
S11313C09FE3E2E4FFE09150E040F040E1F700C029
S11313D000000E94640710927004089581E19AE766
S11313E00197F1F700C00000B2CF1C99F7CF96CF58
S11313F09530D8F78FCFE1E1FAE73197F1F700C0E4
S1131400000079CF1C99F7CF8BCF81E19AE7019740
S1131410F1F700C0000091E098CF1C99F6CF82CF7D
S113142087FB082E062687FD819567FD61950E943E
S1131430470A0EF4919507FC8195089597FB072EB2
S113144016F4009407D077FD09D00E94530A07FCD4
S113145005D03EF4909581959F4F089570956195C0
S11314607F4F0895EE0FFF1F0590F491E02D09942E
S1131470A29FB001B39FC001A39F700D811D1124D1
S1131480911DB29F700D811D1124911D0895991B0A
S113149079E004C0991F961708F0961B881F7A9567
S11314A0C9F780950895AA1BBB1B51E107C0AA1F69
S11314B0BB1FA617B70710F0A61BB70B881F991FF1
S11314C05A95A9F780959095BC01CD010895FC012A
S11314D088279927E89421912032E9F3293010F0E4
S11314E02E30C8F32B3241F02D3239F4689404C005
S11314F00E94CC0A820F911D219120532A30C0F3FF
S11315001EF4909581959F4F089542E654E00E9401
S11315109A0A0895FB01DC018D9101908019011054
S1131520D9F3990B0895FB01DC0101900D92002081
S1131530E1F70895FA01A191B081009719F4109789
S1131540E1F0CD01DC01CD010D90002011F4C001CA
S113155013C0FB012191222319F02015D9F7F3CFF1
S1131560FB012191201519F41E92119606C0222325
S1131570C1F70D900020A1F7D001FA01A193B08327
S11315800895BB274A3031F4992322F4BDE29095A3
S113159081959F4F0C94D50A7AE0979F902D879F51
S11315A0802D910D11240895BB27FB015527AA27EF
S11315B0880F991FAA1FA41710F0A41B83955051DC
S11315C0B9F7A05DAA3308F0A95DA193009779F754
S11315D0B111B1931192CB010C94EE0ADC01FC0120
S11315E0672F71917723E1F7329704C07C916D9353
S11315F070836291AE17BF07C8F30895F894FFCFC4
S113160032434B33544834424C35414A36415400FA
S1131610313A526479204F72205072657653656C6A
S1131620004A756C2031312C2032303137202000B3
S11316304C43442D41546D65676133323870004921
S11316406E736F6F204B696D202020202000736E15
S113165061670000000000000000000000006869ED
S11316606464656E4F62737461636C6500006D69D8
S11316707373696F6E2D61676E6F737469636765E9
S11316806E4170706C696361626C65000000646532
S113169065702D7374656443756C747572656672D8
S11316A061637475726564526C746E73687074757A
S11316B06D756C74000000000000000000006C6F89
S11316C07564436E6673644E736542794D73736FCC
S11316D0626572696E6700000000000000007465B6
S11316E06E64696E67326D6B536F626572006D690B
S11316F073636172726167650000000000006272CA
S11317007468426279416C7264446440576D636CDE
S11317106173732D6163746E4C77537400006C6154
S11317207753756974546F67657468657200626C89
S11317306973746572000000000000000000666CAC
S1131740756964506F636B65740000000000746910
S113175074746572000000000000000000006C61F9
S113176075676851756965744E7276736C796C69C6
S11317706E6520636F6F6B00000000000000612045
S1131780636F6F6B20696E4B69746368656E737504
S11317906363756D62000000000000000000666174
S11317A0696C20746F2072657369737400006172D0
S11317B069640000000000000000000000006C6389
S11317C06B67537566665774722F5261696E656EE6
S11317D06C6976656E000000000000000000686718
S11317E0746E2F696E74656E7369667900006C752A
S11317F072636800000000000000000000006D76C5
S1131800206162727570746C7900000000006F6270
S11318106C6976696F757320746F000000006C63E7
S11318206B67436E7363734177726E4F66007774B0
S11318306E206120776869736B6572206F666578C6
S11318407472656D656C79436C6F73652032636F78
S11318506C6C6F69640000000000000000006D699A
S1131860785770726F704274536F6C5375737265EE
S1131870746963656E740000000000000000646910
S113188073636C696E65643274616C6B00007072B2
S1131890797E617061727400000000000000666F60
S11318A0726365326765745374684F70656E6573EF
S11318B06F74657269630000000000000000636ECD
S11318C0666E64326F6E79456E6C67746E64486FD1
S11318D075723A20004D696E3A20007365633A20B0
S11318E00031363A31363A3132004A756C2031369D
S11318F020323031370020202020202020202020BA
S113190020002F0054656D703A0048756D69646954
S113191074793A00526561647920746F2072756E2F
S113192021004E6F772C736C6565702E4279652E9D
S1131930004A616E00466562004D6172004170723A
S1131940004D6179004A756E004A756C00417567F7
S113195000536570004F6374004E6F7600446563F6
S1051960000081
S9030000FC
