:1000000069C06EC06DC06CC06BC06AC069C068C09A
:1000100067C066C08E0486047F04780471046A0495
:1000200064045F04590454044F044B04470443041C
:100030003F043B043804350432042F042C042A0402
:10004000270425048E0386037F03780371036A0364
:1000500064035F03590354034F034B0347034303F4
:100060003F033B033803350332032F032C032A03DA
:1000700027032503230321031F031D031B031A0367
:100080001803170316031403130312038E028602C8
:100090007F02780271026A0264025F02590254020E
:1000A0004F024B02470243023F023B023802350235
:1000B00032022F022C022A022702250223022102E9
:1000C0001F021D021B021A02180217021602140256
:1000D0001302120211241FBECFE9CDBF2DD03EC1A5
:1000E0008FCFCF93DF93CDB7DD27C450CDBFE82F9F
:1000F000F0E0E80FF11DE80FF11DEE0FFF1FEE0F0E
:10010000FF1FE60FF11DEE0FFF1FEC5EFF4F859105
:100110009491A0E0B0E089839A83AB83BC8383B7DA
:10012000887F9A81892B83BF8981815086BFCC5F6C
:10013000CDBFDF91CF910895B89A8FB582608FBD02
:100140008FB580648FBDD0E010E00FC06C2F8D2F75
:10015000C8DF8FEB9DE50197F1F700C00000CF5F8E
:10016000CC30A1F7DF5FD83011F0C12FEFCF83B7CC
:10017000887F83BF9FE32EE785E091502040804039
:10018000E1F700C0000067E084E0ABDF9FEB24ED07
:1001900081E0915020408040E1F700C0000064E021
:1001A00084E09FDF9FEB24ED81E091502040804070
:1001B000E1F700C0000064E084E093DF9FEB24EDF2
:1001C00081E0915020408040E1F700C0000065E0F0
:1001D00084E087DF9FEB24ED81E091502040804058
:1001E000E1F700C0000062E084E07BDF9FEB24EDDC
:1001F00081E0915020408040E1F700C0000062E0C3
:1002000084E06FDF9FEB24ED81E09150204080403F
:10021000E1F700C0000060E084E063DF8FE59AEE64
:100220000197F1F700C0000064E084E05ADF9FE32B
:1002300029E181E0915020408040E1F700C00000BA
:1002400067E084E04EDF9FE729EA83E09150204099
:100250008040E1F700C0000083B7887F83BF9FEF35
:1002600022E587E0915020408040E1F700C0000087
:1002700067E084E036DF9FEB24ED81E09150204081
:100280008040E1F700C0000064E084E02ADF9FEBDB
:1002900024ED81E0915020408040E1F700C0000053
:1002A00064E084E01EDF9FEB24ED81E0915020406C
:1002B0008040E1F700C0000065E084E012DF9FEBC2
:1002C00024ED81E0915020408040E1F700C0000023
:1002D00062E084E006DF9FEB24ED81E09150204056
:1002E0008040E1F700C0000062E084E0FADE9FEBAE
:1002F00024ED81E0915020408040E1F700C00000F3
:1003000060E084E0EEDE8FE59AEE0197F1F700C041
:10031000000064E084E0E5DE9FE329E181E09150A4
:1003200020408040E1F700C0000060E084E0D9DEBA
:100330009FE729EA83E0915020408040E1F700C028
:10034000000083B7887F83BF9FE72FE482E191504D
:1003500020408040E1F700C0000015CFF894FFCFA7
:00000001FF
