S01D0000544D52434E542D536F756E642D32333138383735372E7372656323
S113000009C019C018C017C016C015C014C013C049
S113001012C011C011241FBECFE9CDBF10E0A0E66D
S1130020B0E0E8EEF0E002C005900D92AE37B10703
S1130030D9F721D057C0E4CFCF93DF93DC019C9153
S11300409923B1F011968FB7F894C39ABB9AC398C9
S113005008B2E3E0C2E1DC2FDA95F1F790FB03F894
S1130060E695979508BAB9F78FBF9D919111EBCF9B
S1130070DF91CF910895CF93DF93CDB7DD27C051A2
S1130080CDBF80E690E0D8DF80E790E0D5DF8E0139
S11300900F5E1F4FCE01019602C040830196FC0102
S11300A05FB7F894C498BC982AE140E8B499FECFAD
S11300B02150F1F723E1B49908944795C8F72A959C
S11300C0F1F75FBF4A3019F08017910731F71082BA
S11300D083EC99E00197F1F700C00000CE0101968E
S10B00E0ABDFD8CFF894FFCF89
S11300E848656C6C6F20576F726C6421200D0A0090
S11100F8BEC8B3E720C0CEBCF621200D0A001E
S9030000FC
