:100000000C9447000C9464000C9464000C946C03F2
:100010000C9464000C9464000C9459040C946400D7
:100020000C9464000C9464000C9464000C946400C0
:100030000C9464000C9464000C9464000C946400B0
:100040000C9464000C9464000C9464000C946400A0
:100050000C9464000C9464000C9464000C94640090
:100060000C9464000C9464003504390435043D0498
:1000700035043D04350435043D0435043D043504A0
:10008000F505FE0507061006190622062B061124A3
:100090001FBECFEFD8E0DEBFCDBF14E0A0E0B1E0DF
:1000A000EAEAF6E102C005900D92AA36B107D9F747
:1000B00024E0AAE6B4E001C01D92A338B207E1F73C
:1000C0000E9465070C94530B0C940000579A569AA3
:1000D000559A549A539A5B98529A5A98209A289A09
:1000E000269A089524980895279A2F9A0895229A77
:1000F0002A980895239A2B9808950E9466000E94DA
:1001000072000E9474000E9477000E947A00089595
:10011000CF93DF9300D000D0CDB7DEB7229A2A9AD2
:100120002FE986E891E0215080409040E1F700C03F
:10013000000061E0CE0101960E94F9082FE986E8EF
:1001400091E0215080409040E1F700C0000061E064
:10015000CE0101960E94F9088B8180937C049981DD
:10016000909380044AE06DE774E090E00E94FC0AFE
:10017000809180044AE069E774E090E00E94FC0A04
:100180000F900F900F900F90DF91CF910895EF9205
:10019000FF920F931F93CF93DF93EC017B018A01B2
:1001A00062E080ED0E945703888361E080ED0E9449
:1001B0005703F701808360E080ED0E945703F80148
:1001C0008083988196FF03C09F71988302C09F73BC
:1001D0009883DF91CF911F910F91FF90EF90089539
:1001E000EF92FF920F931F93CF93DF937C018B01CC
:1001F000EA0165E080ED0E945703F701808364E027
:1002000080ED0E945703F801808366E080ED0E9434
:1002100057038883DF91CF911F910F91FF90EF904B
:100220000895CF93DF93EC0163E080ED0E945703C4
:100230008883DF91CF9108950F931F93CF93DF931E
:1002400000D01F92CDB7DEB700E010E080E80E943A
:10025000E10484E18A95F1F78EEC93E00E94B20408
:10026000809175044AE0BE016F5F7F4F082E000C3D
:10027000990B0E94FC0ACE0101960E94B20480E014
:1002800094E00E94B20483B1E7EAF1E63197F1F716
:1002900000C0000084FD0CC0809175048F5F883120
:1002A00024F480937504012F03C010927504012F6C
:1002B0001F5F812F801B893038F481E19AE7019715
:1002C000F1F700C00000C2CFE1E1FAE73197F1F7A2
:1002D00000C000000F900F900F90DF91CF911F9101
:1002E0000F9108950F931F93CF93DF9300D01F9228
:1002F000CDB7DEB700E010E080E80E94E10484E1C1
:100300008A95F1F785ED93E00E94B2048091740420
:100310004AE0BE016F5F7F4F082E000C990B0E94D0
:10032000FC0ACE0101960E94B20480E094E00E9493
:10033000B20483B1E7EAF1E63197F1F700C00000BB
:1003400084FD0CC0809174048F5F8C3324F48093FF
:100350007404012F03C010927404012F1F5F812FBA
:10036000801B893038F481E19AE70197F1F700C0EA
:100370000000C2CFE1E1FAE73197F1F700C00000D9
:100380000F900F900F90DF91CF911F910F910895D3
:100390000F931F93CF93DF9300D01F92CDB7DEB79B
:1003A00000E010E080E80E94E10484E18A95F1F722
:1003B0008BED93E00E94B204809173044AE0BE0189
:1003C0006F5F7F4F082E000C990B0E94FC0ACE0134
:1003D00001960E94B20480E094E00E94B20483B1CE
:1003E000E7EAF1E63197F1F700C0000084FD0CC0A8
:1003F000809173048F5F8C3324F480937304012FF6
:1004000003C010927304012F1F5F812F801B89305E
:1004100038F481E19AE70197F1F700C00000C2CFFC
:10042000E1E1FAE73197F1F700C000000F900F907B
:100430000F90DF91CF911F910F9108950F931F930C
:10044000CF93DF9300D01F92CDB7DEB700E010E06E
:10045000C8010E94390B4AE0BE016F5F7F4F90E0F8
:100460000E94FC0ACE0101960E94B2042FE38DE0A7
:1004700093E0215080409040E1F700C0000081E00F
:100480000E944B050F5F1F4F0330110509F70F90B6
:100490000F900F90DF91CF911F910F910895CF93FF
:1004A000DF9300D01F92CDB7DEB71B82AE014D5F48
:1004B0005F4FBE016E5F7F4FCE0101960E94C70065
:1004C000698180E090E00E94410B87EA91E6019704
:1004D000F1F700C000006A8181E090E00E94410BCA
:1004E00087EA91E60197F1F700C000006B8182E096
:1004F00090E00E94410B87EA91E60197F1F700C076
:1005000000000F900F900F90DF91CF9108950E94FF
:1005100096070E944F0280E80E94E10484E18A95D8
:10052000F1F780E00E941E020895CF93DF9300D080
:1005300000D0CDB7DEB7AE014D5F5F4FBE016E5F3D
:100540007F4FCE0101960E94F00089810E943905FB
:100550008FE20E94A5048A810E9439058FE20E94E1
:10056000A5048B810E94390580E20E94A504CE017A
:1005700004960E9411018C810E9439050F900F9002
:100580000F900F90DF91CF910895CF93DF9300D01C
:100590001F92CDB7DEB7AE014D5F5F4FBE016E5FFC
:1005A0007F4FCE0101960E94C70089810E943905C4
:1005B0008AE30E94A5048A810E9439058AE30E9489
:1005C000A5048B810E9439050F900F900F90DF9149
:1005D000CF91089580E80E94E1040E94C50288E05E
:1005E0000E944B0580EC0E94E10488E00E944B05CC
:1005F00008950E94880080E80E94E1040E94C502DC
:1006000085E00E944B058DE794E00E94B20483E4EC
:100610000E94A50480EC0E94E1040E94950282E001
:100620000E944B0589E794E00E94B20485E20E9493
:10063000A50408951092B9008DEF8093B800089535
:1006400094EA9093BC00ECEBF0E090819923ECF7F6
:100650008093BB0084E88093BC00ECEBF0E08081E9
:100660008823ECF79091B900987F81E0983109F0E8
:1006700080E008958093BB0084E88093BC00ECEB9D
:10068000F0E080818823ECF79091B900987F81E0B9
:10069000983209F480E0089584E88093BC00ECEB84
:1006A000F0E080818823ECF78091BB000895CF9320
:1006B000DF93C82FD62F0E9420038D2F0E943A036C
:1006C00081E08C0F0E9420030E944C0394E99093D8
:1006D000BC00DF91CF9108951F920F920FB60F9239
:1006E00011242F933F934F935F936F937F938F9337
:1006F0009F93AF93BF93EF93FF938091770491E023
:10070000980F9093770480FD1AC08091780481112E
:100710000DC00E947B070E94EE0483EC99E00197D4
:10072000F1F700C0000081E0809378041C990E94DA
:10073000AC098FE493EC0197F1F700C00000FF9142
:10074000EF91BF91AF919F918F917F916F915F9149
:100750004F913F912F910F900FBE0F901F901895C2
:10076000F894E8E6F0E0808181608083EBE6F0E0D9
:100770008081806180837894089580917304885F7C
:100780008093730420916C04285F20936C048C3355
:100790005CF0909174049F5F909374046CE30E94EA
:1007A0004B0A9E5F909373042C3364F080916D0428
:1007B0008F5F80936D04822F6CE30E944B0A9E5FD3
:1007C00090936C04809174048C3354F06CE30E9419
:1007D0004B0A90937404809175048F5F8093750425
:1007E00080916D048C3361F4809173048451809303
:1007F000730410926D0480916E048F5F80936E0479
:1008000080917504883104F1109275048091700410
:100810008F5F8093700480916F048F5F87301CF42A
:1008200080936F0411C093E98902912D1124980FD0
:100830009595959587FD9395292F220F220F220FCD
:10084000291B821B80936F0420917104822F022E3A
:10085000000C990BAA0BBB0BFC013197EC30F10596
:1008600060F4EC5CFF4F0C946D0A8FE1809381047F
:1008700007C08CE18093810403C08EE180938104E2
:100880009091700480918104891734F481E0809301
:1008900070042F5F20937104809171048D3044F0B7
:1008A00081E080937104809172048F5F8093720461
:1008B00008951F920F920FB60F9211242F933F931A
:1008C0004F935F936F937F938F939F93AF93BF9358
:1008D000EF93FF930E94BD03809176049DEC899F66
:1008E000912D1124969596959695990F292F220F63
:1008F000220F920F891B0E94EB06809176048F5F76
:1009000080937604FF91EF91BF91AF919F918F916A
:100910007F916F915F914F913F912F910F900FBEFB
:100920000F901F9018955F9888230CF45F9A5E983B
:1009300086FD5E9A5D9885FD5D9A5C9884FD5C9A63
:100940005B9A00005B9800000895CF93C82F5A9AD5
:100950005B980E9493048C2F8295807F0E94930461
:10096000CF9108950F931F93CF93DF9300D0CDB70E
:10097000DEB78C011A821982E981FA81E80FF91F2A
:1009800080818823B9F0E981FA81E00FF11F80812D
:100990000E94A50429813A812F5F3F4F3A83298322
:1009A00084E18A95F1F7E981FA81E00FF11F8081F6
:1009B0008111E9CF0F900F90DF91CF911F910F918F
:1009C0000895CF93C82F5A985B980E9493048C2F58
:1009D0008295807F0E949304CF9108958FE097E2E3
:1009E0000197F1F700C000005A985B9880E30E94DD
:1009F000930481EE94E00197F1F700C0000080E3DA
:100A00000E9493048FE295E70197F1F700C0000080
:100A100080E30E94930483EC99E00197F1F700C012
:100A2000000088E20E94930494E19A95F1F788E22D
:100A30000E94E10484E18A95F1F788E00E94E104D4
:100A400094E19A95F1F781E00E94E10487EE93E04A
:100A50000197F1F700C0000086E00E94E10494E1F4
:100A60009A95F1F78CE00E94E10484E18A95F1F710
:100A70000895CF93C82F82958F70805D0E94A50442
:100A80008C2F8F70805D0E94A504CF9108952898C7
:100A90000895289A0895CF93DF93882341F0D82FA3
:100AA000C0E080E20E94A504CF5FCD13FACFDF91B2
:100AB000CF910895CF93DF93CDB7DEB76C970FB684
:100AC000F894DEBF0FBECDBF80E80E94E10484E150
:100AD0008A95F1F7809175044AE0BE01695F7F4F06
:100AE000082E000C990B0E94FC0A809174044AE0C5
:100AF000BE016C5F7F4F082E000C990B0E94FC0A10
:100B0000809173044AE0BE016F5F7F4F082E000C96
:100B1000990B0E94FC0ACE0107960E94B20488E05D
:100B200094E00E94B204CE0104960E94B20488E0D0
:100B300094E00E94B204CE0101960E94B20486EFB6
:100B400093E00E94B20484E18A95F1F780EC0E9460
:100B5000E10484E18A95F1F7809172044AE0BE01D4
:100B6000665F7F4F082E000C990B0E94FC0A809153
:100B700071044AE0BE01635F7F4F082E000C990BA1
:100B80000E94FC0A809170044AE0BE01605F7F4FC2
:100B9000082E000C990B0E94FC0ACE010A960E94B6
:100BA000B20482E094E00E94B204CE010D960E944D
:100BB000B20482E094E00E94B204CE0140960E940A
:100BC000B20480E094E00E94B204E0916F048E2FA2
:100BD000EE0F990BAA0BBB0B8730910508F043C0B1
:100BE000FC01E05CFF4F0C946D0A83E595E7AEE6EF
:100BF000B0E08B8B9C8BAD8BBE8B35C08DE49FE6BC
:100C0000AEE6B0E08B8B9C8BAD8BBE8B2CC084E5AD
:100C100095E7A5E6B0E08B8B9C8BAD8BBE8B23C09C
:100C200087E595E6A4E6B0E08B8B9C8BAD8BBE8B05
:100C30001AC084E598E6A5E7B0E08B8B9C8BAD8B62
:100C4000BE8B11C086E492E7A9E6B0E08B8B9C8B4B
:100C5000AD8BBE8B08C083E591E6A4E7B0E08B8B3B
:100C60009C8BAD8BBE8BCE0143960E94B2048CEF61
:100C700093E00E94B20484E18A95F1F76C960FB676
:100C8000F894DEBF0FBECDBFDF91CF910895CF9313
:100C9000DF93CDB7DEB729970FB6F894DEBF0FBE4E
:100CA000CDBF80EC0E94E10484E18A95F1F7809148
:100CB0006E044AE0BE01695F7F4F082E000C990B5D
:100CC0000E94FC0A80916D044AE0BE016C5F7F4F78
:100CD000082E000C990B0E94FC0A80916C044AE0DB
:100CE000BE016F5F7F4F082E000C990B0E94FC0A1B
:100CF000CE0107960E94B20488E094E00E94B204FC
:100D0000CE0104960E94B20488E094E00E94B204EE
:100D1000CE0101960E94B2048AEF93E00E94B204D1
:100D200084E18A95F1F729960FB6F894DEBF0FBEDD
:100D3000CDBFDF91CF91089580E80E94E10424E1C6
:100D40002A95F1F78FE391E00E94B20480EC0E94B3
:100D5000E10484E18A95F1F780E391E00E94B20416
:100D60009FE32DE083E0915020408040E1F700C0F8
:100D7000000080EC0E94E10494E19A95F1F781E291
:100D800091E00E94B2042FE78AE196E02150804072
:100D90009040E1F700C00000089580E80E94E1045F
:100DA00024E12A95F1F780E191E00E94B20480EC01
:100DB0000E94E10484E18A95F1F780E091E00E94CD
:100DC000B2049FEB27E289E0915020408040E1F798
:100DD00000C000000895EF92FF920F931F93CF93EE
:100DE000DF93E82E80E80E94E10424E12A95F1F7E0
:100DF0009091740493781CF491509C6F9F5F992399
:100E0000ECF092301CF094306CF018C030E2E39EAD
:100E1000C0011124EC01C257DD4F9C0122563D4F09
:100E2000790110C030E2E39EC0011124EC01C25BE5
:100E3000DE4F9C01225A3E4F790104C0E12CF12C77
:100E4000C0E0D0E0CE010E94B204FE01019000207B
:100E5000E9F73197EC1BFD0B00E110E00E1B1109C7
:100E60001016110654F4C0E080E20E94A504CF5F82
:100E70002C2F30E020173107BCF380EC0E94E104F6
:100E800034E13A95F1F7C7010E94B204F7010190ED
:100E90000020E9F73197EE19FF0900E110E00E1B81
:100EA00011091016110654F4C0E080E20E94A50456
:100EB000CF5F8C2F90E080179107BCF3DF91CF912B
:100EC0001F910F91FF90EF9008950E947D000E9466
:100ED000B0030E941A030E94C10783B7817F846018
:100EE00083BF0E94870283B7816083BF889583B7E1
:100EF0008E7F83BFF8CF579A569A559A549A209A64
:100F0000269A2E9A83EC99E00197F1F700C0000031
:100F1000279A2F9A83EC99E00197F1F700C000001F
:100F200022982A9A539A529A5A9808950E947B07B7
:100F30000E94EE0408955F985E985D985C985798BB
:100F400056985598549881E085B920982F982798FD
:100F50002998219829982A9822985B9853985A980A
:100F600052982E982698089580917004082E000CAF
:100F7000990B419767E070E00E94590A80936F04D3
:100F800008951F93CF93DF93CDB7DEB7E4970FB6E5
:100F9000F894DEBF0FBECDBF68E074E081E394E05B
:100FA0000E94C00ABC01FC0180818823E9F020E096
:100FB00011E0120F30E0C901880F991F820F931FB3
:100FC00021E030E02C0F3D1F820F931F0E94CE0ABC
:100FD00068E074E080E090E00E94C00ABC01212F2C
:100FE000FC0180818111E4CFCE0101960E94A20A0A
:100FF00080937504CE0104960E94A20A8093740423
:10100000CE0107960E94A20A815F8093730460E07C
:1010100074E08AEE93E00E94C00ABC01FC0180816A
:10102000882319F120E011E0120F30E0C901880F88
:10103000991F220F331F220F331F220F331F820FDE
:10104000931F2DE030E02C0F3D1F820F931F0E9455
:10105000CE0A60E074E080E090E00E94C00ABC012B
:10106000212FFC0180818111DECF6AE374E0CE0183
:101070000D960E94C50A892B21F481E080937104AA
:1010800083C06EE374E0CE010D960E94C50A892BE1
:1010900021F482E08093710477C062E474E0CE01B1
:1010A0000D960E94C50A892B21F483E08093710478
:1010B0006BC066E474E0CE010D960E94C50A892BD0
:1010C00021F484E0809371045FC06AE474E0CE018F
:1010D0000D960E94C50A892B21F485E08093710446
:1010E00053C06EE474E0CE010D960E94C50A892BB0
:1010F00021F486E08093710447C062E574E0CE017C
:101100000D960E94C50A892B21F487E08093710413
:101110003BC066E574E0CE010D960E94C50A892B9E
:1011200021F488E0809371042FC06AE574E0CE0159
:101130000D960E94C50A892B21F489E080937104E1
:1011400023C06EE574E0CE010D960E94C50A892B7E
:1011500021F48AE08093710417C062E674E0CE0146
:101160000D960E94C50A892B21F48BE080937104AF
:101170000BC066E674E0CE010D960E94C50A892B6D
:1011800019F48CE080937104CE0147960E94A20A64
:1011900080937004CE0181960E94A20AAC019C014A
:1011A000369527953695279536952795A5ECB0E287
:1011B0000E94730A929582958F7089279F70892764
:1011C00068EE73E0869F9001879F300D969F300DEB
:1011D0001124421B530B409372040E94B407E496FF
:1011E0000FB6F894DEBF0FBECDBFDF91CF911F9138
:1011F0000895EF92FF920F931F93CF93DF9300D048
:1012000000D01F92CDB7DEB77C011D821C821B82ED
:101210001A82198284B141E050E0062E02C0440FC8
:10122000551F0A94E2F7842B84B995B1242F209599
:10123000922395B983E991E10197F1F700C000008D
:1012400095B1942B95B99DE09A95F1F7000084B182
:10125000822384B980E003C0815009F45AC023B1CD
:1012600030E024233523232BB9F35DC0215011F442
:1012700052C02FEF83B190E084239523892BB1F7DF
:1012800088E210E0A7E003C0915031F446C0B0E01E
:1012900061E070E007E09B2F23B130E02423352389
:1012A000232B91F39B2F06C0E3E0EA95F1F70000B2
:1012B0009F5FA9F123B130E024233523232BA1F72D
:1012C000923080F0E1E0F0E0EC0FFD1FE10FF11D46
:1012D00090819B010A2E02C0220F331F0A94E2F76D
:1012E000292B2083A11103C01F5FA02F01C0A15093
:1012F000815089F649812B81922F940F3D813913BA
:1013000010C050E0F7015183408330E033832283E3
:1013100017C08EEF15C08EEF13C08EEF11C08EEF89
:101320000FC08FEF0DC083B190E002C095958795F7
:101330006A95E2F780FD9DCF88E210E0A7E0A7CF95
:101340000F900F900F900F900F90DF91CF911F9102
:101350000F91FF90EF90089580E030E020E061E091
:1013600040E052E08F5F982F931B933018F02111CB
:101370008FC079C0953008F480C0222309F470C072
:101380007CC01C9910C0942F05C0952F03C0942FCA
:1013900001C0962FE3E2F4EF3197F1F700C00000AF
:1013A0002F5F382F01C0942FE1E1FAE73197F1F771
:1013B00000C000009923B1F2923011F42091820410
:1013C00020938204233091F028F4213049F0223018
:1013D00051F02FC0253039F1E8F0263039F129C01D
:1013E0000E94F90228C00E94EA0225C00E947B07E1
:1013F0000E94EE040E9447050E94EA02FFEB27E2EA
:1014000089E0F15020408040E1F700C000000E94D8
:10141000490511C00E9472010E941C010E94C8016E
:101420000E945A0508C00E94470605C00E949C06FB
:1014300002C00E94CD069FE3E2E4FFE09150E0404D
:10144000F040E1F700C000000E949B071092780472
:10145000089581E19AE70197F1F700C00000AECF4F
:101460001C99F7CF92CF9530D8F78BCFE1E1FAE70F
:101470003197F1F700C0000075CF1C99F7CF87CFE7
:1014800081E19AE70197F1F700C0000091E094CF65
:101490001C99F6CF7ECF87FB082E062687FD819507
:1014A00067FD61950E94820A0EF4919507FC819573
:1014B000089597FB072E16F4009407D077FD09D006
:1014C0000E948E0A07FC05D03EF4909581959F4FAF
:1014D0000895709561957F4F0895EE0FFF1F059059
:1014E000F491E02D0994A29FB001B39FC001A39F86
:1014F000700D811D1124911DB29F700D811D11244D
:10150000911D0895991B79E004C0991F961708F062
:10151000961B881F7A95C9F780950895AA1BBB1B57
:1015200051E107C0AA1FBB1FA617B70710F0A61BE3
:10153000B70B881F991F5A95A9F780959095BC0104
:10154000CD010895FC0188279927E8942191203244
:10155000E9F3293010F02E30C8F32B3241F02D3250
:1015600039F4689404C00E94070B820F911D2191E9
:1015700020532A30C0F31EF4909581959F4F089513
:101580004AE654E00E94D50A0895FB01DC018D91E2
:10159000019080190110D9F3990B0895FB01DC012A
:1015A00001900D920020E1F70895FA01A191B08118
:1015B000009719F41097E1F0CD01DC01CD010D90F9
:1015C000002011F4C00113C0FB012191222319F066
:1015D0002015D9F7F3CFFB012191201519F41E92A4
:1015E000119606C02223C1F70D900020A1F7D0016B
:1015F000FA01A193B0830895BB274A3031F49923AF
:1016000022F4BDE2909581959F4F0C94100B7AE0E7
:10161000979F902D879F802D910D11240895BB27B2
:10162000FB015527AA27880F991FAA1FA41710F09E
:10163000A41B83955051B9F7A05DAA3308F0A95DAA
:10164000A193009779F7B111B1931192CB010C944A
:10165000290BDC01FC01672F71917723E1F73297A9
:1016600004C07C916D9370836291AE17BF07C8F37D
:101670000895F999FECF92BD81BDF89A992780B55A
:101680000895262FF999FECF92BD81BDF89A019752
:1016900000B4021639F01FBA20BD0FB6F894FA9ABA
:0A16A000F99A0FBE0895F894FFCFE9
:1016AA0032434B33544834424C35414A3641540054
:1016BA00313A526479204F72205072657653656CC4
:1016CA00004A756C2031312C20323031372020000D
:1016DA004C43442D41546D6567613332387000497B
:1016EA006E736F6F204B696D202020202000736E6F
:1016FA006167000000000000000000000000686947
:10170A006464656E4F62737461636C6500006D6931
:10171A007373696F6E2D61676E6F73746963676542
:10172A006E4170706C696361626C6500000064658B
:10173A0065702D7374656443756C74757265667231
:10174A0061637475726564526C746E7368707475D3
:10175A006D756C74000000000000000000006C6FE2
:10176A007564436E6673644E736542794D73736F25
:10177A00626572696E67000000000000000074650F
:10178A006E64696E67326D6B536F626572006D6964
:10179A007363617272616765000000000000627223
:1017AA007468426279416C7264446440576D636C38
:1017BA006173732D6163746E4C77537400006C61AE
:1017CA007753756974546F67657468657200626CE3
:1017DA006973746572000000000000000000666C06
:1017EA00756964506F636B6574000000000074696A
:1017FA0074746572000000000000000000006C6153
:10180A0075676851756965744E7276736C796C691F
:10181A006E6520636F6F6B0000000000000061209E
:10182A00636F6F6B20696E4B69746368656E73755D
:10183A006363756D620000000000000000006661CD
:10184A00696C20746F207265736973740000617229
:10185A0069640000000000000000000000006C63E2
:10186A006B67537566665774722F5261696E656E3F
:10187A006C6976656E000000000000000000686771
:10188A00746E2F696E74656E7369667900006C7583
:10189A0072636800000000000000000000006D761E
:1018AA00206162727570746C7900000000006F62CA
:1018BA006C6976696F757320746F000000006C6341
:1018CA006B67436E7363734177726E4F660077740A
:1018DA006E206120776869736B6572206F66657820
:1018EA007472656D656C79436C6F73652032636FD2
:1018FA006C6C6F69640000000000000000006D69F4
:10190A00785770726F704274536F6C537573726547
:10191A00746963656E740000000000000000646969
:10192A0073636C696E65643274616C6B000070720B
:10193A00797E617061727400000000000000666FB9
:10194A00726365326765745374684F70656E657348
:10195A006F74657269630000000000000000636E26
:10196A00666E64326F6E79456E6C67746E64486F2A
:10197A0075723A20004D696E3A20007365633A2009
:10198A000031333A31393A3237004A756C203138EE
:10199A002032303137002020202020202020202013
:1019AA0020002F0054656D703A0048756D696469AE
:1019BA0074793A00526561647920746F2072756E89
:1019CA0021004E6F772C736C6565702E4279652EF7
:1019DA000031333A31393A3238004A616E0046658D
:1019EA0062004D617200417072004D6179004A7562
:1019FA006E004A756C0041756700536570004F634D
:0A1A0A0074004E6F7600446563001F
:00000001FF
