:1000000009C016C015C014C013C012C011C010C062
:1000100010C00EC011241FBECFE9CDBF20E0A0E666
:10002000B0E001C01D92A236B207E1F736D05BC046
:10003000E7CF1F920F920FB60F9211246F937F9309
:100040008F939F93809160008F5F80936000813ECB
:1000500050F080916100811106C01092600081E033
:100060008093610010C08091610063E030D09230D5
:1000700051F4C09880916100882331F010926000A3
:100080001092610001C0C09A9F918F917F916F91F2
:100090000F900FBE0F901F90189510926000109255
:1000A000610091E097BB81B5816281BD81B58064BB
:1000B00081BD789485B7877E806185BF98BB85B701
:1000C000806285BF889585B78F7D85BFF8CF991BE6
:1000D00079E004C0991F961708F0961B881F7A953F
:0A00E000C9F780950895F894FFCF4A
:00000001FF
