S00B00004953522E737265632B
S113000009C016C015C014C013C012C011C010C05E
S113001010C00EC011241FBECFE9CDBF20E0A0E662
S1130020B0E001C01D92A236B207E1F73BD060C038
S1130030E7CF1F920F920FB60F9211242F936F9355
S11300407F938F939F93809160008F5F813E18F41C
S11300508093600007C010926000809161008F5F00
S1130060809361008091610063E036D0923011F496
S1130070C09801C0C09A20916100822F63E02CD007
S1130080911106C0222321F01092600010926100A9
S11300909F918F917F916F912F910F900FBE0F9031
S11300A01F901895109260001092610091E097BB28
S11300B081B5816281BD81B5806481BD789485B745
S11300C0877E806185BF98BB85B7806285BF889530
S11300D085B78F7D85BFF8CF991B79E004C0991F40
S11300E0961708F0961B881F7A95C9F7809508958E
S10700F0F894FFCFAE
S9030000FC
