:020000020000FC
:1000000015C0189518951895189518951895189560
:1000100018951895189500000000000000000000D9
:10002000000000007EE17A95F1F708950FE90DBF19
:100030000FEF07BB62E05DE4C09AEFDFC098F0DF2E
:100040005A95D1F75DEEE7DFE6DFE5DFE4DFE3DFDA
:10005000E2DFE1DFE0DFDFDF5A95A9F7E1DF5FE014
:10006000C09ADBDFC098DCDF5A95D1F756E7D3DFC3
:100070005A95E9F755E05A95F1F75FE0C09ACDDF60
:10008000C098CEDF5A95D1F7C09AC7DFC09858E81C
:10009000C2DFC1DF5A95E1F75FE0C09ABEDFC098CA
:1000A000BFDF5A95D1F7C09AB8DFC0986A9581F042
:1000B0005FEE4AE0B0DFAFDF4A95E1F75A95C9F746
:1000C00055E0A9DF5A95E9F75AE05A95F1F7B3CF11
:0400D0008895FECF42
:00000001FF
