:100000000C9434000C9449000C9449000C94490061
:100010000C9449000C9449000C9449000C9449003C
:100020000C9449000C9449000C9449000C9449002C
:100030000C9449000C9449000C9449000C9449001C
:100040000C9449000C9449000C9449000C9449000C
:100050000C9449000C9449000C9449000C944900FC
:100060000C9449000C94490011241FBECFEFD8E036
:10007000DEBFCDBF11E0A0E0B1E0E6ECF1E002C0F0
:1000800005900D92AE30B107D9F70E94D4000C94C0
:10009000E1000C9400008CEF8AB981EE84B90895D8
:1000A000181619066CF420E030E0E9EFF0E0319723
:1000B000F1F700C000002F5F3F4F28173907A9F75D
:1000C00008955B9A8DE08A95F1F700005B9808959A
:1000D0009BB1937C9BB984FD5C9A85FD5D9A86FDFE
:1000E0005E9A88230CF45F9A0E9461000895CF9372
:1000F000C82F0E9468008C2F8295807F0E94680024
:100100005D98CF9108955A980E94770008955A9A61
:100110000E947700089587EA91E60197F1F700C001
:10012000000083E30E94830082E30E94830088E250
:100130000E9483008CE00E94830086E00E9483007E
:1001400080E30E94830083EC99E00197F1F700C0FF
:10015000000080E30E94830092E49A95F1F700C0CA
:1001600080E30E94830082E48A95F1F700C081E079
:100170000E94830083E090E00E9450000895CF9396
:10018000DF93EC018881882331F021960E9487005B
:1001900089918111FBCFDF91CF9108951092B90021
:1001A0008DEF8093B80008950E944B000E948B0051
:1001B0000E94CE0087E091E00E94BF0080E090E0C6
:0601C0000895F894FFCF42
:0E01C600466F756E643A0052656164792E00D2
:00000001FF
