S00B00004C43442E7372656346
S11300000C9447000C9464000C9464000C946600F7
S11300100C9464000C9464000C9470010C946400BF
S11300200C9464000C9464000C9464000C946400BC
S11300300C9464000C9464000C9464000C946400AC
S11300400C9464000C9464000C9464000C9464009C
S11300500C9464000C9464000C9464000C9464008C
S11300600C9464000C94640048014C014801540150
S11300704801540148014801540148015401480110
S1130080AC02B502BE02C702D002D902E2021124B8
S11300901FBECFEFD8E0DEBFCDBF14E0A0E0B1E0DB
S11300A0E6EBF0E102C005900D92A436B107D9F752
S11300B024E0A4E6B4E001C01D92A437B207E1F73E
S11300C00E947E040C9459080C9400001F920F9215
S11300D00FB60F9211242F933F934F935F936F9317
S11300E07F938F939F93AF93BF93CF93DF93EF93BC
S11300F0FF931C9B0AC0CBE6D0E088818F7E888367
S11301000E94DE068881806188838FE493EC0197E6
S1130110F1F700C00000FF91EF91DF91CF91BF9103
S1130120AF919F918F917F916F915F914F913F918B
S11301302F910F900FBE0F901F90189504B603FED9
S113014009C084B7877F84BFE0E6F0E080818861DE
S1130150808310820895E0E6F0E0808188618083E6
S113016081E680830895F894E8E6F0E08081816078
S11301708083EBE6F0E08081806180830E949E00B2
S11301800E94AB0078940895F89415BE109269000B
S11301901DBA82E080936E001092640078940895F2
S11301A080916D04885F80936D0420916604285FBC
S11301B0209366048C335CF090916E049F5F90935F
S11301C06E046CE30E946B079E5F90936D042C3366
S11301D064F0809167048F5F80936704822F6CE3DF
S11301E00E946B079E5F9093660480916E048C332B
S11301F054F06CE30E946B0790936E0480916F043B
S11302008F5F80936F04809167048C3361F48091D5
S11302106D04845180936D04109267048091680486
S11302208F5F8093680480916F04883104F1109289
S11302306F0480916A048F5F80936A0480916904DB
S11302408F5F87301CF48093690411C093E989029D
S1130250912D1124980F9595959587FD9395292FA8
S1130260220F220F220F291B821B809369042091E5
S11302706B04822F022E000C990BAA0BBB0BFC0102
S11302803197EC30F10580F4EC5CFF4F0C948D0752
S11302908FE1809371040BC08CE180937104809191
S11302A06A048D3154F408958EE180937104909121
S11302B06A0480917104891734F481E080936A049C
S11302C02F5F20936B0480916B048D3044F081E0A8
S11302D080936B0480916C048F5F80936C04089509
S11302E01F920F920FB60F9211242F933F934F93A7
S11302F05F936F937F938F939F93AF93BF93EF938A
S1130300FF930E94D000809170049DEC899F912DF1
S11303101124969596959695990F292F220F220FC1
S1130320920F891B0E94AA03809170048F5F8093AF
S11303307004FF91EF91BF91AF919F918F917F9145
S11303406F915F914F913F912F910F900FBE0F903E
S11303501F901895289881E0809373040895289A33
S11303601092730408955F9888230CF45F9A5E9842
S113037086FD5E9A5D9885FD5D9A5C9884FD5C9A25
S11303805B9A00005B9800000895CF93C82F5A9A97
S11303905B980E94B3018C2F8295807F0E94B301E9
S11303A0CF9108950F931F93CF93DF9300D0CDB7D0
S11303B0DEB78C011A821982E981FA81E80FF91FEC
S11303C080818823B9F0E981FA81E00FF11F8081EF
S11303D00E94C50189819A8101969A8389838DE05F
S11303E08A95F1F70000E981FA81E00FF11F80811D
S11303F08111E9CF0F900F90DF91CF911F910F9151
S11304000895CF93C82F5A985B980E94B3018C2FFC
S11304108295807F0E94B301CF910895CF93DF939B
S1130420CDB7DEB76C970FB6F894DEBF0FBECDBF65
S113043080E80E9401028DE08A95F1F70000809126
S11304406F044AE0BE01695F7F4F082E000C990BD0
S11304500E941C0880916E044AE0BE016C5F7F4FCD
S1130460082E000C990B0E941C0880916D044AE030
S1130470BE016F5F7F4F082E000C990B0E941C0871
S1130480CE0107960E94D20185EE93E00E94D2012C
S1130490CE0104960E94D20185EE93E00E94D2011F
S11304A0CE0101960E94D20186EF93E00E94D20110
S11304B08DE08A95F1F7000080EC0E9401028DE046
S11304C08A95F1F7000080916C044AE0BE01665FF2
S11304D07F4F082E000C990B0E941C0880916B041E
S11304E04AE0BE01635F7F4F082E000C990B0E9407
S11304F01C0880916A044AE0BE01605F7F4F082EA9
S1130500000C990B0E941C08CE010A960E94D2018D
S113051087EE93E00E94D201CE010D960E94D20193
S113052087EE93E00E94D201CE0140960E94D20150
S113053080E094E00E94D201E09169048E2FEE0FD6
S1130540990BAA0BBB0B8730910508F043C0FC0143
S1130550E05CFF4F0C948D0783E595E79C8B8B8BB8
S11305608EE690E09E8B8D8B35C08DE49FE69C8B50
S11305708B8B8EE690E09E8B8D8B2CC084E595E76B
S11305809C8B8B8B85E690E09E8B8D8B23C087E5BF
S113059095E69C8B8B8B84E690E09E8B8D8B1AC0AA
S11305A084E598E69C8B8B8B85E790E09E8B8D8B06
S11305B011C086E492E79C8B8B8B89E690E09E8B3E
S11305C08D8B08C083E591E69C8B8B8B84E790E050
S11305D09E8B8D8BCE0143960E94D2018CEF93E0CB
S11305E00E94D2018DE08A95F1F700006C960FB657
S11305F0F894DEBF0FBECDBFDF91CF910895CF93A6
S1130600DF93CDB7DEB729970FB6F894DEBF0FBEE0
S1130610CDBF80EC0E9401028DE08A95F1F70000C5
S1130620809168044AE0BE01695F7F4F082E000C88
S1130630990B0E941C08809167044AE0BE016C5F1C
S11306407F4F082E000C990B0E941C0880916604B1
S11306504AE0BE016F5F7F4F082E000C990B0E9489
S11306601C08CE0107960E94D20185EE93E00E94F9
S1130670D201CE0104960E94D20185EE93E00E943D
S1130680D201CE0101960E94D2018AEF93E00E942A
S1130690D2018DE08A95F1F7000029960FB6F894FF
S11306A0DEBF0FBECDBFDF91CF91089580E80E94D9
S11306B001022DE02A95F1F7000081E491E00E9407
S11306C0D20180EC0E9401028DE08A95F1F70000CE
S11306D082E391E00E94D2019FE32DE083E09150F8
S11306E020408040E1F700C0000080EC0E9401023D
S11306F09DE09A95F1F7000081E291E00E94D20119
S11307002FE78AE196E0215080409040E1F700C055
S11307100000089580E80E9401022DE02A95F1F777
S1130720000080E191E00E94D20180EC0E9401026D
S11307308DE08A95F1F7000080E091E00E94D201FB
S11307409FEB27E289E0915020408040E1F700C010
S113075000000895EF92FF920F931F93CF93DF93BE
S1130760E82E80E80E9401022DE02A95F1F70000AE
S113077080916E0483781CF481508C6F8F5F882382
S1130780ECF082301CF084306CF018C030E2E39E50
S1130790C0011124EC01C057DD4F9C0120563D4F90
S11307A0790110C030E2E39EC0011124EC01C05B6A
S11307B0DE4F9C01205A3E4F790104C0E12CF12CFC
S11307C0C0E0D0E0CE010E94D201FE0101900020E1
S11307D0E9F73197EC1BFD0B00E110E00E1B11094A
S11307E01016110654F4C0E080E20E94C501CF5FE8
S11307F08C2F90E080179107BCF380EC0E940102DB
S11308003DE03A95F1F70000C7010E94D201F701DB
S113081001900020E9F73197EE19FF0900E110E09B
S11308200E1B11091016110654F4C0E080E20E9458
S1130830C501CF5F8C2F90E080179107BCF3DF9147
S1130840CF911F910F91FF90EF90089587EA91E661
S11308500197F1F700C000005A985B9880E30E946A
S1130860B30183EC99E00197F1F700C0000080E345
S11308700E94B30192E49A95F1F700C080E30E94CC
S1130880B30182E48A95F1F700C088E20E94B301C3
S11308909DE09A95F1F7000088E20E9401028DE044
S11308A08A95F1F7000088E00E9401029DE09A9584
S11308B0F1F7000081E00E94010287EE93E00197C6
S11308C0F1F700C0000086E00E9401029DE09A95C5
S11308D0F1F700008CE00E9401028DE08A95F1F7A7
S11308E000000895579A569A559A549A209A289A2D
S11308F02498539A529A0E94260408950E947204DE
S11309000E94C4000E94B3000E94A1040E945603E6
S113091083B7817F846083BF83B7816083BF8895F9
S113092083B78E7F83BFF8CF80916A04082E000CB2
S1130930990B419767E070E00E94790780936904FE
S113094008951F93CF93DF93CDB7DEB7E4970FB627
S1130950F894DEBF0FBECDBF65EE73E087E194E08F
S11309600E94E007BC01FC0180818823E9F020E0BB
S113097011E0120F30E0C901880F991F820F931FF5
S113098021E030E02C0F3D1F820F931F0E94EE07E1
S113099065EE73E080E090E00E94E007BC01212F47
S11309A0FC0180818111E4CFCE0101960E94C2072F
S11309B080936F04CE0104960E94C20780936E0454
S11309C0CE0107960E94C207815F80936D0460E0A8
S11309D074E089ED93E00E94E007BC01FC01808192
S11309E0882319F120E011E0120F30E0C901880FCB
S11309F0991F220F331F220F331F220F331F820F21
S1130A00931F2DE030E02C0F3D1F820F931F0E9497
S1130A10EE0760E074E080E090E00E94E007BC0133
S1130A20212FFC0180818111DECF60E274E0CE01D0
S1130A300D960E94E507892B21F481E080936B04D5
S1130A4083C064E274E0CE010D960E94E507892B11
S1130A5021F482E080936B0477C068E274E0CE01F5
S1130A600D960E94E507892B21F483E080936B04A3
S1130A706BC06CE274E0CE010D960E94E507892BF1
S1130A8021F484E080936B045FC060E374E0CE01E2
S1130A900D960E94E507892B21F485E080936B0471
S1130AA053C064E374E0CE010D960E94E507892BE0
S1130AB021F486E080936B0447C068E374E0CE01C0
S1130AC00D960E94E507892B21F487E080936B043F
S1130AD03BC06CE374E0CE010D960E94E507892BC0
S1130AE021F488E080936B042FC060E474E0CE01AD
S1130AF00D960E94E507892B21F489E080936B040D
S1130B0023C064E474E0CE010D960E94E507892BAE
S1130B1021F48AE080936B0417C068E474E0CE018A
S1130B200D960E94E507892B21F48BE080936B04DA
S1130B300BC06CE474E0CE010D960E94E507892B8E
S1130B4019F48CE080936B04CE0147960E94C2078F
S1130B5080936A04CE0181960E94C207AC019C0175
S1130B60369527953695279536952795A5ECB0E2C9
S1130B700E949307929582958F7089279F70892789
S1130B8068EE73E0869F9001879F300D969F300D2D
S1130B901124421B530B40936C040E949404E4966A
S1130BA00FB6F894DEBF0FBECDBFDF91CF911F917A
S1130BB008950F931F93CF93DF9300D01F92CDB767
S1130BC0DEB700E010E080E80E9401028DE08A9523
S1130BD0F1F7000080E594E00E94D20180916F0457
S1130BE04AE0BE016F5F7F4F082E000C990B0E94F4
S1130BF01C08CE0101960E94D20180E094E00E947C
S1130C00D20183B1E7EAF1E63197F1F700C00000C1
S1130C1084FD0CC080916F048F5F883124F480932D
S1130C206F04012F03C010926F04012F1F5F812FE7
S1130C30801B893038F481E19AE70197F1F700C00D
S1130C400000C1CFE1E1FAE73197F1F700C00000FD
S1130C500F900F900F90DF91CF911F910F910895F6
S1130C600F931F93CF93DF9300D01F92CDB7DEB7BE
S1130C7000E010E080E80E9401028DE08A95F1F71F
S1130C80000087E594E00E94D20180916E044AE05E
S1130C90BE016F5F7F4F082E000C990B0E941C0849
S1130CA0CE0101960E94D20180E094E00E94D2011C
S1130CB083B1E7EAF1E63197F1F700C0000084FD63
S1130CC00CC080916E048F5F8C3324F480936E0487
S1130CD0012F03C010926E04012F1F5F812F801B10
S1130CE0893038F481E19AE70197F1F700C00000F8
S1130CF0C1CFE1E1FAE73197F1F700C000000F90AE
S1130D000F900F90DF91CF911F910F9108950F9342
S1130D101F93CF93DF9300D01F92CDB7DEB700E0CF
S1130D2010E080E80E9401028DE08A95F1F700004E
S1130D308DE594E00E94D20180916D044AE0BE01E9
S1130D406F5F7F4F082E000C990B0E941C08CE0188
S1130D5001960E94D20180E094E00E94D20183B106
S1130D60E7EAF1E63197F1F700C0000084FD0CC01A
S1130D7080916D048F5F8C3324F480936D04012F74
S1130D8003C010926D04012F1F5F812F801B8930D7
S1130D9038F481E19AE70197F1F700C00000C1CF70
S1130DA0E1E1FAE73197F1F700C000000F900F90EE
S1130DB00F90DF91CF911F910F91089580E030E063
S1130DC020E051E060E042E08F5F982F931B953064
S1130DD010F021117AC0993008F46DC0222309F46F
S1130DE076C069C0962FE3E2F4EF3197F1F700C0C3
S1130DF000002F5FE1E1FAE73197F1F700C000004E
S1130E00382F992309F3923011F42091720420931E
S1130E107204233011F128F4213049F0223099F082
S1130E2040C0253079F1E0F02630C1F13AC00E948B
S1130E300E02FFE32DE083E0F15020408040E1F713
S1130E4000C00000089580917304811103C00E94C2
S1130E50AA0108950E94AF0108950E948A0308958B
S1130E600E9430060E94D9050E9487060E940E0245
S1130E709FE3EDE0F3E09150E040F040E1F700C083
S1130E80000008950E94FF022FE78AE196E02150B6
S1130E9080409040E1F700C0000008950E9456038E
S1130EA008950E948A030895E1E1FAE73197F1F782
S1130EB000C0000089CF1C99F7CF94CFE1E1FAE795
S1130EC03197F1F700C000009ECF952F01C0942FF9
S1130ED01C9B89CFF3CF87FB082E062687FD8195BF
S1130EE067FD61950E94A2070EF4919507FC819518
S1130EF0089597FB072E16F4009407D077FD09D0C8
S1130F000E94AE0707FC05D03EF4909581959F4F53
S1130F100895709561957F4F0895EE0FFF1F05901A
S1130F20F491E02D0994A29FB001B39FC001A39F47
S1130F30700D811D1124911DB29F700D811D11240E
S1130F40911D0895991B79E004C0991F961708F024
S1130F50961B881F7A95C9F780950895AA1BBB1B19
S1130F6051E107C0AA1FBB1FA617B70710F0A61BA5
S1130F70B70B881F991F5A95A9F780959095BC01C6
S1130F80CD010895FC0188279927E8942191203206
S1130F90E9F3293010F02E30C8F32B3241F02D3212
S1130FA039F4689404C00E942708820F911D21918E
S1130FB020532A30C0F31EF4909581959F4F0895D5
S1130FC044E654E00E94F5070895FB01DC018D918D
S1130FD0019080190110D9F3990B0895FB01DC01EC
S1130FE001900D920020E1F70895FA01A191B081DA
S1130FF0009719F41097E1F0CD01DC01CD010D90BB
S1131000002011F4C00113C0FB012191222319F027
S11310102015D9F7F3CFFB012191201519F41E9265
S1131020119606C02223C1F70D900020A1F7D0012C
S1131030FA01A193B0830895BB274A3031F4992370
S113104022F4BDE2909581959F4F0C9430087AE08C
S1131050979F902D879F802D910D11240895BB2774
S1131060FB015527AA27880F991FAA1FA41710F060
S1131070A41B83955051B9F7A05DAA3308F0A95D6C
S1131080A193009779F7B111B1931192CB010C940C
S11310904908DC01FC01672F71917723E1F732974E
S11310A004C07C916D9370836291AE17BF07C8F33F
S10910B00895F894FFCF3F
S11310B632434B33424C343F3F35414A3641540068
S11310C6313A526479204F72205072657653656CBA
S11310D6004E6F762031342C2032303231202020DD
S11310E620004C43442D41546D656761333238709A
S11310F600496E736F6F204B696D202020202000FD
S1131106736E61670000000000000000000000002C
S113111668697463682C2063617463680000000066
S11311266D65616765720000000000000000000044
S11311366E6F7420656E6F756768000000000000AE
S1131146646170706C6564000000000000000000BB
S11311566C6974652C7368646520706174636800D7
S1131166636C6170626F61726400000000000000CD
S113117677616C6C2D636F76657220776F6F640090
S1131186637261636B000000000000000000000051
S11311966C6F736520636F6E74726F6C0000000071
S11311A6486F77536F6F6E276E6F74206E6F772755
S11311B66265636F6D657320276E657665722E278B
S11311C67265706C65746500000000000000000024
S11311D666756C6C206F660000000000000000005D
S11311E6626C697374657200000000000000000000
S11311F6666C756964506F636B657400000000006B
S11312067469747465720000000000000000000038
S11312166C6175676851756965744E7276736C791D
S113122662697263680000000000000000000000AC
S113123674616C6C54726565572F7468696E42727A
S113124670726F636565647300000000000000003F
S11312566D6F6E657900000000000000000000005C
S1131266636861666500000000000000000000007D
S1131276736F72652062792072756262696E6700A7
S113128673686F77646F776E0000000000000000DB
S113129662696720617267756D656E74000000008F
S11312A6657870656469656E74000000000000006E
S11312B6696E74656E74696F6E616C00000000007F
S11312C66F75746C616E64697368000000000000D9
S11312D662697A6172726500000000000000000015
S11312E66D616C65766F6C656E74000000000000BD
S11312F664656C696272746C792E206861726D0023
S11313066578686F72740000000000000000000039
S11313167572676500000000000000000000000010
S1131326636F6D706C616973616E74000000000018
S1131336616363657074696E6700000000000000F5
S11313466578746F6C000000000000000000000067
S113135670726169736520657874726D6C790000CA
S11313666E6574746C656400000000000000000083
S1131376616E6E6F79656400000000000000000075
S113138632303A34383A3238004E6F7620313420CF
S113139632303231003A002F0054656D703A202005
S11313A62020200020432020202020202020202030
S11313B6200048756D69646974793A2000202520F7
S11313C62020202020200031383A30353A323300AC
S11313D64A616E00466562004D617200417072009A
S11313E64D6179004A756E004A756C004175670057
S11313F6536570004F6374004E6F76004465630056
S1131406486F75723A20004D696E3A200073656321
S10714163A20000074
S9030000FC
