S00B00004C43442E7372656346
S11300000C9447000C9464000C9464000C94E0007D
S11300100C9464000C9464000C94DA010C94640055
S11300200C9464000C9464000C9464000C946400BC
S11300300C9464000C9464000C9464000C946400AC
S11300400C9464000C9464000C9464000C9464009C
S11300500C9464000C9464000C9464000C9464008C
S11300600C9464000C946400B601BA01B601BE019C
S1130070B601BE01B601B601BE01B601BE01B601AC
S113008012031B0324032D0336033F0348031124E7
S11300901FBECFEFD8E0DEBFCDBF14E0A0E0B1E0DB
S11300A0E0ECF2E102C005900D92A037B107D9F758
S11300B024E0A0E7B4E001C01D92A038B207E1F744
S11300C00E9455050C945E090C940000219A29980D
S11300D087E893E10197F1F700C00000299A089599
S11300E021981999FECF199BFECF1999FECF089537
S11300F088E090E0199BFECF2AE02A95F1F7199B3E
S113010007C020917204220F21602093720405C05D
S113011020917204220F209372041999FECF019743
S113012049F7809172040895AF92BF92CF92DF9203
S1130130EF92FF920F931F93CF93DF935C016B01B8
S11301407A01E9010E9466000E9470000E94780012
S1130150F50180830E947800F60180830E94780074
S1130160F70180830E94780088830E947800F80158
S11301708083F5019081F601608170E0690F711D43
S1130180F7019081AB01490F511D98819A01290F04
S1130190311D482F50E081E090E02417350711F419
S11301A080E090E0919581959109DF91CF911F9125
S11301B00F91FF90EF90DF90CF90BF90AF90089594
S11301C01F920F920FB60F9211242F933F934F93C8
S11301D05F936F937F938F939F93AF93BF93CF93CB
S11301E0DF93EF93FF931C9B0AC0CBE6D0E088819A
S11301F08F7E88830E94B3078881806188838FE41F
S113020093EC0197F1F700C00000FF91EF91DF91AB
S1130210CF91BF91AF919F918F917F916F915F919A
S11302204F913F912F910F900FBE0F901F901895F3
S113023004B603FE09C084B7877F84BFE0E6F0E01C
S113024080818861808310820895E0E6F0E08081F7
S11302508861808381E680830895F894E8E6F0E07D
S1130260808181608083EBE6F0E08081806180831F
S11302700E9418010E9425017894089580917A04BF
S1130280885F80937A0420917304285F2093730419
S11302908C335CF090917B049F5F90937B046CE3C0
S11302A00E9470089E5F90937A042C3364F08091CE
S11302B074048F5F80937404822F6CE30E9470082F
S11302C09E5F9093730480917B048C3354F06CE3B1
S11302D00E94700890937B0480917C048F5F8093CC
S11302E07C04809174048C3361F480917A04845189
S11302F080937A0410927404809175048F5F8093C4
S1130300750480917C04883104F110927C048091FE
S113031077048F5F80937704809176048F5F8730B2
S11303201CF48093760411C093E98902912D112461
S1130330980F9595959587FD9395292F220F220F58
S1130340220F291B821B8093760420917804822F2C
S1130350022E000C990BAA0BBB0BFC013197EC305D
S1130360F10560F4EC5CFF4F0C9492088FE18093EC
S11303707E0407C08CE180937E0403C08EE18093E9
S11303807E049091770480917E04891734F481E08F
S1130390809377042F5F20937804809178048D30C4
S11303A044F081E080937804809179048F5F809396
S11303B0790408951F920F920FB60F9211242F9370
S11303C03F934F935F936F937F938F939F93AF93D9
S11303D0BF93EF93FF930E943E0180917D049DECB7
S11303E0899F912D1124969596959695990F292F6D
S11303F0220F220F920F891B0E94810480917D0499
S11304008F5F80937D04FF91EF91BF91AF919F9196
S11304108F917F916F915F914F913F912F910F90A9
S11304200FBE0F901F90189528980895289A089544
S11304305F9888230CF45F9A5E9886FD5E9A5D98B7
S113044085FD5D9A5C9884FD5C9A5B9A00005B98DC
S113045000000895CF93C82F5A9A5B980E941802FF
S11304608C2F8295807F0E941802CF9108950F935C
S11304701F93CF93DF9300D0CDB7DEB78C011A82E0
S11304801982E981FA81E80FF91F80818823C1F07C
S1130490E981FA81E00FF11F80810E942A022981FB
S11304A03A812F5F3F4F3A8329838DE08A95F1F794
S11304B00000E981FA81E00FF11F80818111E8CF0A
S11304C00F900F90DF91CF911F910F910895CF93CB
S11304D0C82F5A985B980E9418028C2F8295807FAF
S11304E00E941802CF910895CF93DF93CDB7DEB762
S11304F06C970FB6F894DEBF0FBECDBF80E80E94A4
S113050067028DE08A95F1F7000080917C044AE04F
S1130510BE01695F7F4F082E000C990B0E942109D0
S113052080917B044AE0BE016C5F7F4F082E000C73
S1130530990B0E94210980917A044AE0BE016F5F01
S11305407F4F082E000C990B0E942109CE010796BB
S11305500E94370285EE93E00E943702CE01049692
S11305600E94370285EE93E00E943702CE01019685
S11305700E94370286EF93E00E9437028DE08A954D
S1130580F1F7000080EC0E9467028DE08A95F1F794
S11305900000809179044AE0BE01665F7F4F082E17
S11305A0000C990B0E942109809178044AE0BE0155
S11305B0635F7F4F082E000C990B0E9421098091E4
S11305C077044AE0BE01605F7F4F082E000C990B50
S11305D00E942109CE010A960E94370287EE93E019
S11305E00E943702CE010D960E94370287EE93E0F7
S11305F00E943702CE0140960E94370280E094E0C8
S11306000E943702E09176048E2FEE0F990BAA0B0D
S1130610BB0B8730910508F043C0FC01E05CFF4F41
S11306200C94920883E595E7AEE6B0E08B8B9C8B47
S1130630AD8BBE8B35C08DE49FE6AEE6B0E08B8B10
S11306409C8BAD8BBE8B2CC084E595E7A5E6B0E012
S11306508B8B9C8BAD8BBE8B23C087E595E6A4E684
S1130660B0E08B8B9C8BAD8BBE8B1AC084E598E677
S1130670A5E7B0E08B8B9C8BAD8BBE8B11C086E461
S113068092E7A9E6B0E08B8B9C8BAD8BBE8B08C048
S113069083E591E6A4E7B0E08B8B9C8BAD8BBE8B9E
S11306A0CE0143960E9437028CEF93E00E943702FA
S11306B08DE08A95F1F700006C960FB6F894DEBFD2
S11306C00FBECDBFDF91CF910895CF93DF93CDB708
S11306D0DEB729970FB6F894DEBF0FBECDBF80EC0E
S11306E00E9467028DE08A95F1F7000080917504FD
S11306F04AE0BE01695F7F4F082E000C990B0E94EF
S11307002109809174044AE0BE016C5F7F4F082E7A
S1130710000C990B0E942109809173044AE0BE01E8
S11307206F5F7F4F082E000C990B0E942109CE01A8
S113073007960E94370285EE93E00E943702CE01AD
S113074004960E94370285EE93E00E943702CE01A0
S113075001960E9437028AEF93E00E9437028DE0EF
S11307608A95F1F7000029960FB6F894DEBF0FBE04
S1130770CDBFDF91CF9108950F931F93CF93DF9354
S1130780CDB7DEB728970FB6F894DEBF0FBECDBF46
S11307908E01085F1F4F9E01295F3F4FAE014A5FE4
S11307A05F4FBE016B5F7F4FCE0104960E949400A1
S11307B080E80E9467028DE08A95F1F7000089EED7
S11307C093E00E9437028E814AE0BE016F5F7F4F43
S11307D090E00E942109CE0101960E9437028F8188
S11307E04AE0BE016F5F7F4F90E00E94210984EFD1
S11307F093E00E94370280EC0E9467028DE08A95A4
S1130800F1F7000082E094E00E9437028C814AE014
S1130810BE016F5F7F4F90E00E942109CE010196D7
S11308200E9437028D814AE0BE016F5F7F4F90E0E6
S11308300E9421098DE094E00E9437028DE08A95A0
S1130840F1F7000028960FB6F894DEBF0FBECDBFB7
S1130850DF91CF911F910F91089580E80E94670264
S11308602DE02A95F1F7000081E491E00E9437021F
S113087080EC0E9467028DE08A95F1F7000082E324
S113088091E00E9437029FE32DE083E091502040E5
S11308908040E1F700C0000080EC0E9467029DE008
S11308A09A95F1F7000081E291E00E9437022FE768
S11308B08AE196E0215080409040E1F700C00000BA
S11308C0089580E80E9467022DE02A95F1F7000060
S11308D080E191E00E94370280EC0E9467028DE083
S11308E08A95F1F7000080E091E00E9437029FEBC7
S11308F027E289E0915020408040E1F700C00000E9
S11309000895EF92FF920F931F93CF93DF93E82EF6
S113091080E80E9467022DE02A95F1F7000090918B
S11309207B0493781CF491509C6F9F5F9923ECF0A7
S113093092301CF094306CF018C030E2E39EC00199
S11309401124EC01C057DD4F9C0120563D4F790125
S113095010C030E2E39EC0011124EC01C05BDE4F05
S11309609C01205A3E4F790104C0E12CF12CC0E0D7
S1130970D0E0CE010E943702FE0101900020E9F789
S11309803197EC1BFD0B00E110E00E1B1109101652
S1130990110654F4C0E080E20E942A02CF5F2C2F9B
S11309A030E020173107BCF380EC0E9467023DE081
S11309B03A95F1F70000C7010E943702F701019050
S11309C00020E9F73197EE19FF0900E110E00E1B52
S11309D011091016110654F4C0E080E20E942A02A4
S11309E0CF5F8C2F90E080179107BCF3DF91CF91FC
S11309F01F910F91FF90EF90089587EA91E6019778
S1130A00F1F700C000005A985B9880E30E94180236
S1130A1083EC99E00197F1F700C0000080E30E94A5
S1130A20180292E49A95F1F700C080E30E9418023C
S1130A3082E48A95F1F700C088E20E9418029DE0E2
S1130A409A95F1F7000088E20E9467028DE08A958A
S1130A50F1F7000088E00E9467029DE09A95F1F7A3
S1130A60000081E00E94670287EE93E00197F1F7AE
S1130A7000C0000086E00E9467029DE09A95F1F7AD
S1130A8000008CE00E9467028DE08A95F1F7000077
S1130A900895579A569A559A549A209A289A2498BF
S1130AA0539A529A0E94FD0408950E9449050E9497
S1130AB02D010E9476050E942D0483B7817F8460F6
S1130AC083BF83B7816083BF889583B78E7F83BFDD
S1130AD0F8CF80917704082E000C990B419767E0BA
S1130AE070E00E947E088093760408951F93CF934C
S1130AF0DF93CDB7DEB7E4970FB6F894DEBF0FBE31
S1130B00CDBF65EE73E087E194E00E94E508BC0187
S1130B10FC0180818823E9F020E011E0120F30E02D
S1130B20C901880F991F820F931F21E030E02C0F19
S1130B303D1F820F931F0E94F30865EE73E080E06F
S1130B4090E00E94E508BC01212FFC018081811105
S1130B50E4CFCE0101960E94C70880937C04CE01A5
S1130B6004960E94C70880937B04CE0107960E94D6
S1130B70C708815F80937A0460E074E080E294E0C7
S1130B800E94E508BC01FC018081882319F120E062
S1130B9011E0120F30E0C901880F991F220F331F93
S1130BA0220F331F220F331F820F931F2DE030E0DB
S1130BB02C0F3D1F820F931F0E94F30860E074E026
S1130BC080E090E00E94E508BC01212FFC018081B7
S1130BD08111DECF6CE274E0CE010D960E94EA082A
S1130BE0892B21F481E08093780483C060E374E06E
S1130BF0CE010D960E94EA08892B21F482E08093AD
S1130C00780477C064E374E0CE010D960E94EA088C
S1130C10892B21F483E0809378046BC068E374E04B
S1130C20CE010D960E94EA08892B21F484E080937A
S1130C3078045FC06CE374E0CE010D960E94EA086C
S1130C40892B21F485E08093780453C060E474E038
S1130C50CE010D960E94EA08892B21F486E0809348
S1130C60780447C064E474E0CE010D960E94EA085B
S1130C70892B21F487E0809378043BC068E474E016
S1130C80CE010D960E94EA08892B21F488E0809316
S1130C9078042FC06CE474E0CE010D960E94EA083B
S1130CA0892B21F489E08093780423C060E574E003
S1130CB0CE010D960E94EA08892B21F48AE08093E4
S1130CC0780417C064E574E0CE010D960E94EA082A
S1130CD0892B21F48BE0809378040BC068E574E0E1
S1130CE0CE010D960E94EA08892B19F48CE08093BA
S1130CF07804CE0147960E94C70880937704CE01FA
S1130D0081960E94C708AC019C01369527953695BB
S1130D10279536952795A5ECB0E20E949808929500
S1130D2082958F7089279F70892768EE73E0869F6C
S1130D309001879F300D969F300D1124421B530B59
S1130D40409379040E946905E4960FB6F894DEBFD7
S1130D500FBECDBFDF91CF911F9108950F931F93C5
S1130D60CF93DF9300D01F92CDB7DEB700E010E041
S1130D7080E80E9467028DE08A95F1F700008CE517
S1130D8094E00E94370280917C044AE0BE016F5FC8
S1130D907F4F082E000C990B0E942109CE01019669
S1130DA00E94370280E094E00E94370283B1E7EAB0
S1130DB0F1E63197F1F700C0000084FD0CC080918A
S1130DC07C048F5F883124F480937C04012F03C05A
S1130DD010927C04012F1F5F812F801B893038F40F
S1130DE081E19AE70197F1F700C00000C1CFE1E18A
S1130DF0FAE73197F1F700C000000F900F900F90C1
S1130E00DF91CF911F910F9108950F931F93CF936B
S1130E10DF9300D01F92CDB7DEB700E010E080E88A
S1130E200E9467028DE08A95F1F7000083E694E062
S1130E300E94370280917B044AE0BE016F5F7F4FBE
S1130E40082E000C990B0E942109CE0101960E94E4
S1130E50370280E094E00E94370283B1E7EAF1E6CA
S1130E603197F1F700C0000084FD0CC080917B0431
S1130E708F5F8C3324F480937B04012F03C0109282
S1130E807B04012F1F5F812F801B893038F481E19F
S1130E909AE70197F1F700C00000C1CFE1E1FAE75A
S1130EA03197F1F700C000000F900F900F90DF9181
S1130EB0CF911F910F9108950F931F93CF93DF93B9
S1130EC000D01F92CDB7DEB700E010E080E80E94AA
S1130ED067028DE08A95F1F7000089E694E00E94AC
S1130EE0370280917A044AE0BE016F5F7F4F082E7B
S1130EF0000C990B0E942109CE0101960E94370231
S1130F0080E094E00E94370283B1E7EAF1E631978A
S1130F10F1F700C0000084FD0CC080917A048F5F5B
S1130F208C3324F480937A04012F03C010927A0442
S1130F30012F1F5F812F801B893038F481E19AE7EC
S1130F400197F1F700C00000C1CFE1E1FAE7319762
S1130F50F1F700C000000F900F900F90DF91CF9138
S1130F601F910F91089580E030E020E061E040E0BF
S1130F7052E08F5F982F931B953018F02111ADC06C
S1130F8097C0993008F49EC0222309F48EC09AC0F9
S1130F901C9910C0942F05C0952F03C0942F01C035
S1130FA0962FE3E2F4EF3197F1F700C000002F5FD2
S1130FB0382F01C0942FE1E1FAE73197F1F700C02F
S1130FC000009923B1F2923011F420917F04209310
S1130FD07F04233079F128F4213059F02230A9F02C
S1130FE05AC0253009F448C0A8F1263009F450C08D
S1130FF052C00E947402FFE32DE083E0F1502040D0
S11310008040E1F700C0000008959FE3EDE0F3E0C5
S11310109150E040F040E1F700C000000E94BC03A2
S11310202FE382E49FE0215080409040E1F700C02C
S1131030000008950E9414020E947402EFEBFCE584
S113104025E1E150F0402040E1F700C000000E949B
S1131050160208950E9405070E94AE060E945C07CE
S11310600E9474028FE39DE0E3E081509040E040F1
S1131070E1F700C0000008950E946503FFE72AE13C
S113108086E0F15020408040E1F700C00000089560
S11310900E942D0408950E9461040895E1E1FAE795
S11310A03197F1F700C0000090CF1C99F7CF74CFAF
S11310B09930D8F76DCFE1E1FAE73197F1F700C045
S11310C0000057CF1C99F7CF69CF81E19AE70197C8
S11310D0F1F700C0000091E076CF1C99F6CF60CF05
S11310E087FB082E062687FD819567FD61950E9482
S11310F0A7080EF4919507FC8195089597FB072E98
S113110016F4009407D077FD09D00E94B30807FCB9
S113111005D03EF4909581959F4F08957095619503
S11311207F4F0895EE0FFF1F0590F491E02D099471
S1131130A29FB001B39FC001A39F700D811D112414
S1131140911DB29F700D811D1124911D0895991B4D
S113115079E004C0991F961708F0961B881F7A95AA
S1131160C9F780950895AA1BBB1B51E107C0AA1FAC
S1131170BB1FA617B70710F0A61BB70B881F991F34
S11311805A95A9F780959095BC01CD010895FC016D
S113119088279927E89421912032E9F3293010F027
S11311A02E30C8F32B3241F02D3239F4689404C048
S11311B00E942C09820F911D219120532A30C0F3E3
S11311C01EF4909581959F4F089540E754E00E9446
S11311D0FA080895FB01DC018D910190801901103A
S11311E0D9F3990B0895FB01DC0101900D920020C5
S11311F0E1F70895FA01A191B081009719F41097CD
S1131200E1F0CD01DC01CD010D90002011F4C0010D
S113121013C0FB012191222319F02015D9F7F3CF34
S1131220FB012191201519F41E92119606C0222368
S1131230C1F70D900020A1F7D001FA01A193B0836A
S11312400895BB274A3031F4992322F4BDE29095E6
S113125081959F4F0C9435097AE0979F902D879F35
S1131260802D910D11240895BB27FB015527AA2732
S1131270880F991FAA1FA41710F0A41B839550511F
S1131280B9F7A05DAA3308F0A95DA193009779F797
S1131290B111B1931192CB010C944E09DC01FC0104
S11312A0672F71917723E1F7329704C07C916D9396
S11312B070836291AE17BF07C8F30895F894FFCF07
S11312C032434B33544834424C35414A364154003E
S11312D0313A526479204F72205072657653656CAE
S11312E0004175672031352C2032303138202020E0
S11312F020004C43442D41546D656761333238708E
S113130000496E736F6F204B696D202020202000F0
S1131310736E616700000000000000000000000020
S113132068696464656E4F62737461636C65000020
S11313306D697373696F6E2D61676E6F7374696322
S113134067656E4170706C696361626C6500000072
S1131350646565702D7374656443756C747572652A
S1131360667261637475726564526C746E736870CE
S113137074756D756C7400000000000000000000BE
S11313806C6F7564436E6673644E736542794D7316
S1131390736F626572696E670000000000000000F0
S11313A074656E64696E67326D6B536F626572004B
S11313B06D6973636172726167650000000000000B
S11313C062727468426279416C7264446440576D1D
S11313D0636C6173732D6163746E4C775374000096
S11313E06C617753756974546F67657468657200CE
S11313F0626C6973746572000000000000000000F4
S1131400666C756964506F636B657400000000005E
S1131410746974746572000000000000000000002C
S11314206C6175676851756965744E7276736C7911
S11314306C696E6520636F6F6B0000000000000034
S11314406120636F6F6B20696E4B69746368656EAE
S113145061627374696E656E63650000000000006C
S113146061766F6964616E636500000000000000CE
S113147070616D706572656400000000000000001A
S1131480747265617465642077656C6C000000009B
S113149073686F77646F776E0000000000000000CF
S11314A062696720617267756D656E740000000083
S11314B0657870656469656E740000000000000062
S11314C0696E74656E74696F6E616C000000000073
S11314D06F75746C616E64697368000000000000CD
S11314E0646973617070726F7665000000000000BB
S11314F06D616C65766F6C656E74000000000000B1
S113150064656C696272746C792E206861726D0016
S11315106578686F7274000000000000000000002D
S11315206861726420746F2070657273756164659C
S1131530636F6D706C616973616E7400000000000C
S1131540616363657074696E6700000000000000E9
S11315506578746F6C00000000000000000000005B
S113156070726169736520657874726D6C790000BE
S11315706F627374696E617465000000000000009E
S113158073747562626F726E0000000000000000E8
S113159031343A31353A35350041756720313520DB
S11315A032303138003A002F0054656D703A2020F3
S11315B02020200020432020202020202020202024
S11315C0200048756D69646974793A2000202520EB
S11315D02020202020200032333A30353A343300A2
S11315E04175672031332032303138004A616E0052
S11315F0466562004D617200417072004D61790070
S11316004A756E004A756C00417567005365700039
S11316104F6374004E6F760044656300486F7572C3
S11316203A20004D696E3A20007365633A20000049
S9030000FC
